:020000040800F2
:100000000050002081160008D1140008D9140008FF
:10001000E1140008E9140008F114000800000000D1
:10002000000000000000000000000000F9140008BB
:100030000515000800000000111500081D15000836
:10004000C9160008C9160008C9160008C916000814
:10005000C9160008C9160008C9160008C916000804
:10006000C9160008C9160008C9160008C9160008F4
:10007000C9160008C9160008C9160008C9160008E4
:10008000C9160008C9160008C9160008C9160008D4
:10009000C9160008C9160008C9160008C9160008C4
:1000A000C9160008C9160008C9160008C9160008B4
:1000B000C9160008C9160008C9160008C9160008A4
:1000C000C9160008C9160008C9160008C916000894
:1000D000C9160008612A0008952A0008C92A0008E4
:1000E000C9160008C9160008C9160008000000005B
:1000F0000000000000000000000000000000000000
:0C01000000000000000000005FF808F1A3
:1001100010B5054C237833B9044B13B10448AFF341
:1001200000800123237010BD0002002000000000A9
:10013000D888000808B5034B1BB103490348AFF347
:10014000008008BD0000000004020020D8880008DC
:10015000034613F8012B002AFBD1181A0138704707
:1001600081F0004102E000BF83F0004330B54FEA68
:1001700041044FEA430594EA050F08BF90EA020FD5
:100180001FBF54EA000C55EA020C7FEA645C7FEA68
:10019000655C00F0E2804FEA5454D4EB5555B8BF8B
:1001A0006D420CDD2C4480EA020281EA030382EAFC
:1001B000000083EA010180EA020281EA0303362D8E
:1001C00088BF30BD11F0004F4FEA01314FF4801C61
:1001D0004CEA113102D0404261EB410113F0004F73
:1001E0004FEA03334CEA133302D0524263EB43032A
:1001F00094EA050F00F0A780A4F10104D5F1200EC8
:100200000DDB02FA0EFC22FA05F2801841F1000122
:1002100003FA0EF2801843FA05F359410EE0A5F1F6
:1002200020050EF1200E012A03FA0EFC28BF4CF027
:10023000020C43FA05F3C01851EBE37101F00045DD
:1002400007D54FF0000EDCF1000C7EEB00006EEBEA
:100250000101B1F5801F1BD3B1F5001F0CD3490874
:100260005FEA30004FEA3C0C04F101044FEA4452CB
:1002700012F5800F80F09A80BCF1004F08BF5FEA52
:10028000500C50F1000041EB045141EA050130BD32
:100290005FEA4C0C404141EB0101013C28BFB1F544
:1002A000801FE9D291F0000F04BF01460020B1FA8F
:1002B00081F308BF2033A3F10B03B3F120020CDA62
:1002C0000C3208DD02F1140CC2F10C0201FA0CF040
:1002D00021FA02F10CE002F11402D8BFC2F1200CA5
:1002E00001FA02F120FA0CFCDCBF41EA0C0190405B
:1002F000E41AA2BF01EB0451294330BD6FEA0404A4
:100300001F3C1CDA0C340EDC04F11404C4F120028E
:1003100020FA04F001FA02F340EA030021FA04F3A0
:1003200045EA030130BDC4F10C04C4F1200220FAF7
:1003300002F001FA04F340EA0300294630BD21FA35
:1003400004F0294630BD94F0000F83F4801306BFFB
:1003500081F480110134013D4EE77FEA645C18BFEF
:100360007FEA655C29D094EA050F08BF90EA020F86
:1003700005D054EA000C04BF1946104630BD91EA7E
:10038000030F1EBF0021002030BD5FEA545C05D181
:100390004000494128BF41F0004130BD14F58004C0
:1003A0003CBF01F5801130BD01F0004545F0FE4134
:1003B00041F470014FF0000030BD7FEA645C1ABF69
:1003C000194610467FEA655C1CBF0B46024650EAA0
:1003D000013406BF52EA033591EA030F41F40021CC
:1003E00030BD00BF90F0000F04BF0021704730B552
:1003F0004FF4806404F132044FF000054FF0000127
:1004000050E700BF90F0000F04BF0021704730B5E7
:100410004FF4806404F1320410F0004548BF4042BC
:100420004FF000013EE700BF42004FEAE2014FEA11
:1004300031014FEA02701FBF12F07F4393F07F4FEC
:1004400081F06051704732F07F4208BF704793F0EF
:100450007F4F04BF41F40021704730B54FF4607402
:1004600001F0004521F000411CE700BF50EA010205
:1004700008BF704730B54FF000050AE050EA0102AE
:1004800008BF704730B511F0004502D5404261EB1E
:1004900041014FF4806404F132045FEA915C3FF45F
:1004A000D8AE4FF003025FEADC0C18BF03325FEAFC
:1004B000DC0C18BF033202EBDC02C2F1200300FAAD
:1004C00003FC20FA02F001FA03FE40EA0E0021FAD2
:1004D00002F11444BDE600BF70B54FF0FF0C4CF4C0
:1004E000E06C1CEA11541DBF1CEA135594EA0C0F72
:1004F00095EA0C0F00F0DEF82C4481EA030621EAAD
:100500004C5123EA4C5350EA013518BF52EA0335E7
:1005100041F4801143F4801338D0A0FB02CE4FF099
:100520000005E1FB02E506F00042E0FB03E54FF0C9
:100530000006E1FB03569CF0000F18BF4EF0010EC1
:10054000A4F1FF04B6F5007F64F5407404D25FEABD
:100550004E0E6D4146EB060642EAC62141EA555170
:100560004FEAC52040EA5E504FEACE2EB4F1FD0CB2
:1005700088BFBCF5E06F1ED8BEF1004F08BF5FEA30
:10058000500E50F1000041EB045170BD06F00046E2
:1005900046EA010140EA020081EA0301B4EB5C048F
:1005A000C2BFD4EB0C0541EA045170BD41F4801187
:1005B0004FF0000E013C00F3AB8014F1360FDEBFAC
:1005C000002001F0004170BDC4F10004203C35DA88
:1005D0000C341BDC04F11404C4F1200500FA05F30B
:1005E00020FA04F001FA05F240EA020001F00042AC
:1005F00021F0004110EBD37021FA04F642EB060122
:100600005EEA430E08BF20EAD37070BDC4F10C044B
:10061000C4F1200500FA04F320FA05F001FA04F20F
:1006200040EA020001F0004110EBD37041F10001FB
:100630005EEA430E08BF20EAD37070BDC4F1200506
:1006400000FA05F24EEA020E20FA04F301FA05F26E
:1006500043EA020321FA04F001F0004121FA04F216
:1006600020EA020000EBD3705EEA430E08BF20EAE6
:10067000D37070BD94F0000F0FD101F00046400020
:1006800041EB010111F4801F08BF013CF7D041EAA2
:10069000060195F0000F18BF704703F000465200A6
:1006A00043EB030313F4801F08BF013DF7D043EA77
:1006B0000603704794EA0C0F0CEA135518BF95EA2D
:1006C0000C0F0CD050EA410618BF52EA4306D1D1B4
:1006D00081EA030101F000414FF0000070BD50EAD3
:1006E000410606BF1046194652EA430619D094EA5D
:1006F0000C0F02D150EA013613D195EA0C0F05D147
:1007000052EA03361CBF104619460AD181EA03019A
:1007100001F0004141F0FE4141F470014FF0000052
:1007200070BD41F0FE4141F4780170BD70B54FF0ED
:10073000FF0C4CF4E06C1CEA11541DBF1CEA13556D
:1007400094EA0C0F95EA0C0F00F0A7F8A4EB05044F
:1007500081EA030E52EA03354FEA013100F0888046
:100760004FEA03334FF0805545EA131343EA12630F
:100770004FEA022245EA111545EA10654FEA0026C4
:100780000EF000419D4208BF964244F1FD0404F57D
:10079000407402D25B084FEA3202B61A65EB0305D9
:1007A0005B084FEA32024FF480104FF4002CB6EB96
:1007B000020E75EB030E22BFB61A754640EA0C0016
:1007C0005B084FEA3202B6EB020E75EB030E22BF56
:1007D000B61A754640EA5C005B084FEA3202B6EB97
:1007E000020E75EB030E22BFB61A754640EA9C0056
:1007F0005B084FEA3202B6EB020E75EB030E22BF26
:10080000B61A754640EADC0055EA060E18D04FEAE3
:10081000051545EA16754FEA06164FEAC30343EA83
:1008200052734FEAC2025FEA1C1CC0D111F4801F50
:100830000BD141EA00014FF000004FF0004CB6E749
:1008400011F4801F04BF01430020B4F1FD0C88BFE8
:10085000BCF5E06F3FF6AFAEB5EB030C04BFB6EBF3
:10086000020C5FEA500C50F1000041EB045170BDE6
:100870000EF0004E4EEA113114EB5C04C2BFD4EB13
:100880000C0541EA045170BD41F480114FF0000E97
:10089000013C90E645EA060E8DE60CEA135594EA13
:1008A0000C0F08BF95EA0C0F3FF43BAF94EA0C0F16
:1008B0000AD150EA01347FF434AF95EA0C0F7FF48B
:1008C00025AF104619462CE795EA0C0F06D152EADF
:1008D00003353FF4FDAE1046194622E750EA4106C3
:1008E00018BF52EA43067FF4C5AE50EA41047FF4D4
:1008F0000DAF52EA43057FF4EBAE12E74FF0FF3C39
:1009000006E000BF4FF0010C02E000BF4FF0010C09
:100910004DF804CD4FEA410C7FEA6C5C4FEA430C82
:1009200018BF7FEA6C5C1BD001B050EA410C0CBFD1
:1009300052EA430C91EA030F02BF90EA020F002033
:10094000704710F1000F91EA030F58BF994208BF9A
:1009500090422CBFD8176FEAE37040F00100704757
:100960004FEA410C7FEA6C5C02D150EA013C07D1AE
:100970004FEA430C7FEA6C5CD6D152EA033CD3D0F9
:100980005DF8040B704700BF8446104662468C46F3
:100990001946634600E000BF01B5FFF7B7FF002826
:1009A00048BF10F1000F01BD4DF808EDFFF7F4FF4F
:1009B0000CBF012000205DF808FB00BF4DF808EDDA
:1009C000FFF7EAFF34BF012000205DF808FB00BFFD
:1009D0004DF808EDFFF7E0FF94BF012000205DF81F
:1009E00008FB00BF4DF808EDFFF7CEFF94BF0120D4
:1009F00000205DF808FB00BF4DF808EDFFF7C4FFCD
:100A000034BF012000205DF808FB00BF4FEA410C15
:100A10007FEA6C5C02D150EA013C0AD14FEA430CF8
:100A20007FEA6C5C02D152EA033C02D14FF0000035
:100A300070474FF0010070474FEA410212F5001273
:100A400015D211D56FF47873B3EB625212D94FEA15
:100A5000C12343F0004343EA505311F0004F23FAFF
:100A600002F018BF404270474FF00000704750EA54
:100A7000013005D111F0004008BF6FF00040704711
:100A80004FF00000704700BF4A0011D212F500126B
:100A900011D20DD56FF47873B3EB62520ED44FEAD6
:100AA000C12343F0004343EA505323FA02F0704756
:100AB0004FF00000704750EA013002D14FF0FF3094
:100AC00070474FF0000070474FEA4102B2F1E04337
:100AD00024BFB3F5001CDCF1FE5C0DD901F0004C25
:100AE0004FEAC0024CEA5070B2F1004F40EB830075
:100AF00008BF20F00100704711F0804F21D113F1A1
:100B00003872BCBF01F00040704741F480114FEAD9
:100B10005252C2F11802C2F1200C10FA0CF320FA62
:100B200002F018BF40F001004FEAC1234FEAD3237F
:100B300003FA0CFC40EA0C0023FA02F34FEA4303E9
:100B4000CCE77FEA625307D150EA01331EBF4FF072
:100B5000FE4040F44000704701F0004040F0FE408D
:100B600040F40000704700BF80F0004002E000BF8A
:100B700081F0004142001FBF5FEA410392EA030F88
:100B80007FEA226C7FEA236C6AD04FEA1262D2EBD2
:100B90001363C1BFD218414048404140B8BF5B42D7
:100BA000192B88BF704710F0004F40F4000020F070
:100BB0007F4018BF404211F0004F41F4000121F086
:100BC0007F4118BF494292EA030F3FD0A2F10102D0
:100BD00041FA03FC10EB0C00C3F1200301FA03F10E
:100BE00000F0004302D5494260EB4000B0F5000F31
:100BF00013D3B0F1807F06D340084FEA310102F1F0
:100C00000102FE2A51D2B1F1004F40EBC25008BFA1
:100C100020F0010040EA03007047490040EB00006B
:100C2000013A28BFB0F5000FEDD2B0FA80FCACF16C
:100C3000080CB2EB0C0200FA0CF0AABF00EBC25099
:100C400052421843BCBFD0401843704792F0000F87
:100C500081F4000106BF80F400000132013BB5E7DA
:100C60004FEA41037FEA226C18BF7FEA236C21D050
:100C700092EA030F04D092F0000F08BF08467047B5
:100C800090EA010F1CBF0020704712F07F4F04D183
:100C9000400028BF40F00040704712F100723CBF96
:100CA00000F50000704700F0004343F0FE4040F4C0
:100CB000000070477FEA226216BF08467FEA23637E
:100CC0000146420206BF5FEA412390EA010F40F469
:100CD000800070474FF0000304E000BF10F00043B5
:100CE00048BF40425FEA000C08BF704743F096439C
:100CF00001464FF000001CE050EA010208BF7047B7
:100D00004FF000030AE000BF50EA010208BF70473D
:100D100011F0004302D5404261EB41015FEA010C52
:100D200002BF84460146002043F0B64308BFA3F14A
:100D30008053A3F50003BCFA8CF2083AA3EBC2532C
:100D400010DB01FA02FC634400FA02FCC2F120024B
:100D5000BCF1004F20FA02F243EB020008BF20F082
:100D60000100704702F1200201FA02FCC2F12002E8
:100D700050EA4C0021FA02F243EB020008BF20EADD
:100D8000DC7070474FF0FF0C1CEAD0521EBF1CEA0B
:100D9000D15392EA0C0F93EA0C0F6FD01A4480EAF9
:100DA000010C400218BF5FEA41211ED04FF00063E2
:100DB00043EA501043EA5111A0FB01310CF000400E
:100DC000B1F5000F3EBF490041EAD3715B0040EA34
:100DD000010062F17F02FD2A1DD8B3F1004F40EB04
:100DE000C25008BF20F00100704790F0000F0CF0D7
:100DF000004C08BF49024CEA502040EA51207F3A9B
:100E0000C2BFD2F1FF0340EAC250704740F4000075
:100E10004FF00003013A5DDC12F1190FDCBF00F066
:100E200000407047C2F10002410021FA02F1C2F114
:100E3000200200FA02FC5FEA310040F1000053EAB0
:100E40004C0308BF20EADC70704792F0000F00F0FE
:100E5000004C02BF400010F4000F013AF9D040EA04
:100E60000C0093F0000F01F0004C02BF490011F498
:100E7000000F013BF9D041EA0C018FE70CEAD15396
:100E800092EA0C0F18BF93EA0C0F0AD030F0004C16
:100E900018BF31F0004CD8D180EA010000F00040CA
:100EA000704790F0000F17BF90F0004F084691F088
:100EB000000F91F0004F14D092EA0C0F01D14202C2
:100EC0000FD193EA0C0F03D14B0218BF084608D18B
:100ED00080EA010000F0004040F0FE4040F40000D5
:100EE000704740F0FE4040F4400070474FF0FF0C68
:100EF0001CEAD0521EBF1CEAD15392EA0C0F93EAAF
:100F00000C0F69D0A2EB030280EA010C49024FEA00
:100F1000402037D04FF0805343EA111143EA1013B9
:100F20000CF000408B4238BF5B0042F17D024FF471
:100F3000000C8B4224BF5B1A40EA0C00B3EB510F4C
:100F400024BFA3EB510340EA5C00B3EB910F24BF35
:100F5000A3EB910340EA9C00B3EBD10F24BFA3EBBA
:100F6000D10340EADC001B0118BF5FEA1C1CE0D182
:100F7000FD2A3FF650AF8B4240EBC25008BF20F035
:100F8000010070470CF0004C4CEA50207F32C2BF89
:100F9000D2F1FF0340EAC250704740F400004FF026
:100FA0000003013A37E792F0000F00F0004C02BF57
:100FB000400010F4000F013AF9D040EA0C0093F021
:100FC000000F01F0004C02BF490011F4000F013B7B
:100FD000F9D041EA0C0195E70CEAD15392EA0C0FE3
:100FE00008D142027FF47DAF93EA0C0F7FF470AF1B
:100FF000084676E793EA0C0F04D14B023FF44CAF5E
:1010000008466EE730F0004C18BF31F0004CCAD1F2
:1010100030F000427FF45CAF31F000437FF43CAF2E
:101020005FE700BF4FF0FF3C06E000BF4FF0010C50
:1010300002E000BF4FF0010C4DF804CD4FEA400232
:101040004FEA41037FEA226C18BF7FEA236C11D07C
:1010500001B052EA530C18BF90EA010F58BFB2EB2F
:10106000030088BFC81738BF6FEAE17018BF40F0AF
:10107000010070477FEA226C02D15FEA402C05D163
:101080007FEA236CE4D15FEA412CE1D05DF8040BE8
:10109000704700BF844608466146FFE70FB5FFF77B
:1010A000C9FF002848BF10F1000F0FBD4DF808ED33
:1010B000FFF7F4FF0CBF012000205DF808FB00BF24
:1010C0004DF808EDFFF7EAFF34BF012000205DF87E
:1010D00008FB00BF4DF808EDFFF7E0FF94BF0120CB
:1010E00000205DF808FB00BF4DF808EDFFF7D2FFC8
:1010F00094BF012000205DF808FB00BF4DF808ED0B
:10110000FFF7C8FF34BF012000205DF808FB00BFD7
:101110004FEA40024FEA41037FEA226C02D15FEAC4
:10112000402C08D17FEA236C02D15FEA412C02D126
:101130004FF0000070474FF00100704742000ED2A0
:10114000B2F1FE4F0BD34FF09E03B3EB126209D402
:101150004FEA002343F0004323FA02F070474FF0B8
:101160000000704712F1610F01D1420202D14FF02D
:10117000FF3070474FF00000704700BF38B50022C5
:10118000002304460D46FFF719FC28B920462946DE
:10119000BDE8384000F00AB8204605F1004100F0F3
:1011A00005F8404261EB410138BD00BFD0B50022D7
:1011B0000B4B06460F46FFF78FF9FFF765FC044619
:1011C000FFF710F90022074BFFF786F902460B469E
:1011D00030463946FEF7C8FFFFF756FC2146D0BD22
:1011E0000000F03D0000F04180B586B002AF00F095
:1011F0006DFA00F0EFF84FF4E13200215F4801F0A2
:10120000C1FA5F4803F0A0FA5E4803F09DFA01F0CE
:10121000DBFF02F017F902F071F95B4803F094FA72
:101220005A4803F091FA02F05FF802F09FF802F0DA
:1012300015FAF86002F024FAB86002F035FA0346B5
:10124000FB7102F03DFA0346BB7102F045FA03461A
:101250007B71F868FFF7E8F802460B46F9790091D0
:101260004B4803F009FAB868FFF7DEF802460B4670
:10127000B9790091474803F0FFF9474803F0FCF9BA
:10128000FB79032B08D1F868FFF7CEF802460B462E
:10129000424803F0F1F91FE0FB79022B08D1F8680E
:1012A000FFF7C2F802460B463D4803F0E5F913E0AC
:1012B000FB79012B08D1F868FFF7B6F802460B4618
:1012C000384803F0D9F907E0F868FFF7ADF80246AF
:1012D0000B46354803F0D0F9344803F0CDF9BB791B
:1012E000032B08D1B868FFF79FF802460B46304839
:1012F00003F0C2F91FE0BB79022B08D1B868FFF7F1
:1013000093F802460B462B4803F0B6F913E0BB797D
:10131000012B08D1B868FFF787F802460B4626482C
:1013200003F0AAF907E0B868FFF77EF802460B461B
:10133000224803F0A1F97B79032B06D0032B10DCA4
:10134000012B0AD0022B04D00BE01D4803F0FCF95E
:101350000BE01C4803F0F8F907E01B4803F0F4F930
:1013600003E01A4803F0F0F900BF194803F0ECF964
:101370004EF6602000F00CFA55E700BF003801403F
:10138000F088000810890008348900084C8900089A
:101390006889000894890008C0890008D08900087D
:1013A000FC890008248A0008488A0008688A000826
:1013B000788A0008AC8A0008D48A0008F88A0008F5
:1013C000188B00083C8B0008588B00087C8B0008A9
:1013D0009C8B000880B590B000AF07F1180328225D
:1013E0000021184603F0B0FA3B1D00221A605A6033
:1013F0009A60DA601A610123BB614FF48033FB61AC
:1014000000233B620123BB6202237B634FF48033E2
:10141000BB634FF4E013FB6307F11803184600F0B9
:10142000BFFA0346002B01D000F019F80F237B60B0
:101430000223BB600023FB604FF480633B61002309
:101440007B613B1D0221184600F02CFD0346002B5A
:1014500001D000F004F800BF4037BD4680BD80B425
:1014600000AF72B600BF00BFFDE7000080B485B0DA
:1014700000AF154B9B69144A43F001039361124B73
:101480009B6903F00103BB60BB680F4BDB690E4A2D
:1014900043F08053D3610C4BDB6903F080537B60D6
:1014A0007B680A4B5B68FB60FB6823F0E063FB60D2
:1014B000FB6843F00073FB60044AFB68536000BFA5
:1014C0001437BD4680BC7047001002400000014048
:1014D00080B400AF00BFFDE780B400AF00BFFDE700
:1014E00080B400AF00BFFDE780B400AF00BFFDE7F0
:1014F00080B400AF00BFFDE780B400AF00BFBD46C1
:1015000080BC704780B400AF00BFBD4680BC704750
:1015100080B400AF00BFBD4680BC704780B500AF4F
:1015200000F01AF900BF80BD80B400AF0123184657
:10153000BD4680BC704780B582B000AF786039602E
:1015400003F054FA034616221A604FF0FF33184690
:101550000837BD4680BD80B582B000AF78604FF0DF
:10156000FF317868FFF7E7FF00BFFDE780B586B081
:1015700000AFF860B9607A6000237B610AE0AFF3E6
:1015800000800146BB685A1CBA60CAB21A707B69F7
:1015900001337B617A697B689A42F0DB7B6818468D
:1015A0001837BD4680BD80B483B000AF78604FF07F
:1015B000FF3318460C37BD4680BC704780B483B0FB
:1015C00000AF786039603B684FF400525A600023E6
:1015D00018460C37BD4680BC704780B483B000AF5E
:1015E0007860012318460C37BD4680BC704780B434
:1015F00085B000AFF860B9607A60002318461437F0
:10160000BD4680BC7047000080B586B000AF7860F2
:10161000144A154BD31A7B617B693B61134B1B68E2
:10162000002B02D1114B124A1A60104B1A687B68CA
:1016300013443A699A4207D203F0D8F903460C22C0
:101640001A604FF0FF3309E0084B1B68FB60074B43
:101650001A687B681344054A1360FB6818461837FC
:10166000BD4680BD00500020000400001C02002088
:101670009842002080B400AF00BFBD4680BC7047D8
:10168000FFF7F8FF0B480C490C4A002302E0D4583E
:10169000C4500433C4188C42F9D3094A094C0023BE
:1016A00001E013600432A242FBD303F0A5F9FFF777
:1016B0009BFD70470000002000020020709500088C
:1016C0000002002094420020FEE7000080B500AF39
:1016D000084B1B68074A43F010031360032000F017
:1016E0002BF90F2000F008F8FFF7C0FE0023184682
:1016F00080BD00BF0020024080B582B000AF78609E
:10170000124B1A68124B1B7819464FF47A73B3FBCD
:10171000F1F3B2FBF3F3184600F035F90346002B62
:1017200001D001230EE07B680F2B0AD800227968D4
:101730004FF0FF3000F00BF9064A7B68136000237E
:1017400000E0012318460837BD4680BD0000002098
:10175000080000200400002080B400AF054B1B7877
:101760001A46054B1B681344034A136000BFBD466D
:1017700080BC7047080000202002002080B400AF29
:10178000024B1B681846BD4680BC704720020020F3
:1017900080B584B000AF7860FFF7F0FFB8607B6879
:1017A000FB60FB68B3F1FF3F05D00A4B1B781A467C
:1017B000FB681344FB6000BFFFF7E0FF0246BB6815
:1017C000D31AFA689A42F7D800BF00BF1037BD4657
:1017D00080BD00BF0800002080B485B000AF7860F5
:1017E0007B6803F00703FB600C4BDB68BB60BA68E7
:1017F0004FF6FF031340BB60FB681A02BB6813433C
:1018000043F0BF6343F40033BB60044ABB68D3605A
:1018100000BF1437BD4680BC704700BF00ED00E03C
:1018200080B400AF044BDB681B0A03F007031846C3
:10183000BD4680BC704700BF00ED00E080B483B0BF
:1018400000AF03463960FB7197F90730002B0ADBC4
:101850003B68DAB20C4997F907301201D2B20B4457
:1018600083F800230AE03B68DAB20849FB7903F009
:101870000F03043B1201D2B20B441A7600BF0C379F
:10188000BD4680BC704700BF00E100E000ED00E015
:1018900080B489B000AFF860B9607A60FB6803F08B
:1018A0000703FB61FB69C3F10703042B28BF042373
:1018B000BB61FB690433062B02D9FB69033B00E0E3
:1018C00000237B614FF0FF32BB6902FA03F3DA4376
:1018D000BB681A407B699A404FF0FF317B6901FA7F
:1018E00003F3D9437B680B40134318462437BD46A6
:1018F00080BC704780B582B000AF78607B68013BE8
:10190000B3F1807F01D301230FE00A4A7B68013BDA
:1019100053600F214FF0FF30FFF790FF054B00227F
:101920009A60044B07221A60002318460837BD4608
:1019300080BD00BF10E000E080B582B000AF7860ED
:101940007868FFF749FF00BF0837BD4680BD80B506
:1019500086B000AF0346B9607A60FB7300237B61F9
:10196000FFF75EFF78617A68B9687869FFF790FFE2
:10197000024697F90F3011461846FFF75FFF00BF88
:101980001837BD4680BD80B582B000AF78607868FA
:10199000FFF7B0FF034618460837BD4680BD00007C
:1019A00080B586B000AF78607B68002B01D1012341
:1019B00072E27B681B6803F00103002B00F0878054
:1019C000924B5B6803F00C03042B0CD08F4B5B68CD
:1019D00003F00C03082B12D18C4B5B6803F48033AB
:1019E000B3F5803F0BD1894B1B6803F40033002B08
:1019F0006CD07B685B68002B68D101234CE27B686C
:101A00005B68B3F5803F06D1804B1B687F4A43F487
:101A1000803313602EE07B685B68002B0CD17B4B1E
:101A20001B687A4A23F480331360784B1B68774A2B
:101A300023F4802313601DE07B685B68B3F5A02F5F
:101A40000CD1724B1B68714A43F4802313606F4BB7
:101A50001B686E4A43F4803313600BE06B4B1B68CA
:101A60006A4A23F480331360684B1B68674A23F487
:101A7000802313607B685B68002B13D0FFF77EFE2A
:101A8000386108E0FFF77AFE02463B69D31A642BFF
:101A900001D9032300E25D4B1B6803F40033002BE4
:101AA000F0D014E0FFF76AFE386108E0FFF766FE49
:101AB00002463B69D31A642B01D90323ECE1534B53
:101AC0001B6803F40033002BF0D100E000BF7B68FB
:101AD0001B6803F00203002B63D04C4B5B6803F0E0
:101AE0000C03002B0BD0494B5B6803F00C03082B55
:101AF0001CD1464B5B6803F48033002B16D1434B5B
:101B00001B6803F00203002B05D07B681B69012BC7
:101B100001D00123C0E13D4B1B6823F0F8027B6834
:101B20005B69DB00394913430B603AE07B681B6952
:101B3000002B20D0364B01221A60FFF71FFE3861C0
:101B400008E0FFF71BFE02463B69D31A022B01D9BE
:101B50000323A1E12D4B1B6803F00203002BF0D0FF
:101B60002A4B1B6823F0F8027B685B69DB0027497E
:101B700013430B6015E0264B00221A60FFF7FEFDB1
:101B8000386108E0FFF7FAFD02463B69D31A022BE1
:101B900001D9032380E11D4B1B6803F00203002BD6
:101BA000F0D17B681B6803F00803002B3AD07B68F8
:101BB0009B69002B19D0174B01221A60FFF7DEFD3D
:101BC000386108E0FFF7DAFD02463B69D31A022BC1
:101BD00001D9032360E10D4B5B6A03F00203002B84
:101BE000F0D0012000F0A6FA1CE00A4B00221A6097
:101BF000FFF7C4FD38610FE0FFF7C0FD02463B6907
:101C0000D31A022B08D9032346E100BF001002407B
:101C10000000424280044242924B5B6A03F002039E
:101C2000002BE9D17B681B6803F00403002B00F054
:101C3000A6800023FB758B4BDB6903F08053002BE0
:101C40000DD1884BDB69874A43F08053D361854BC4
:101C5000DB6903F08053BB60BB680123FB75824BDB
:101C60001B6803F48073002B18D17F4B1B687E4ADE
:101C700043F480731360FFF781FD386108E0FFF7DC
:101C80007DFD02463B69D31A642B01D9032303E18E
:101C9000754B1B6803F48073002BF0D07B68DB6806
:101CA000012B06D16F4B1B6A6E4A43F0010313628E
:101CB0002DE07B68DB68002B0CD16A4B1B6A694AFC
:101CC00023F001031362674B1B6A664A23F0040387
:101CD00013621CE07B68DB68052B0CD1614B1B6A2F
:101CE000604A43F0040313625E4B1B6A5D4A43F093
:101CF000010313620BE05B4B1B6A5A4A23F001039A
:101D00001362584B1B6A574A23F0040313627B6823
:101D1000DB68002B15D0FFF731FD38610AE0FFF7D3
:101D20002DFD02463B69D31A41F28832934201D914
:101D30000323B1E04B4B1B6A03F00203002BEED0F0
:101D400014E0FFF71BFD38610AE0FFF717FD0246BC
:101D50003B69D31A41F28832934201D903239BE0B5
:101D6000404B1B6A03F00203002BEED1FB7D012BDD
:101D700005D13C4BDB693B4A23F08053D3617B6840
:101D8000DB69002B00F08780364B5B6803F00C03A7
:101D9000082B61D07B68DB69022B46D1334B0022D4
:101DA0001A60FFF7EBFC386108E0FFF7E7FC02463A
:101DB0003B69D31A022B01D903236DE0294B1B6821
:101DC00003F00073002BF0D17B681B6AB3F5803FF2
:101DD00008D1244B5B6823F400327B689B6821495F
:101DE00013434B601F4B5B6823F474127B68196AC2
:101DF0007B685B6A0B431B4913434B601B4B0122FF
:101E00001A60FFF7BBFC386108E0FFF7B7FC024639
:101E10003B69D31A022B01D903233DE0114B1B6808
:101E200003F00073002BF0D035E0104B00221A6055
:101E3000FFF7A4FC386108E0FFF7A0FC02463B690D
:101E4000D31A022B01D9032326E0064B1B6803F0AB
:101E50000073002BF0D11EE07B68DB69012B07D1FA
:101E6000012319E00010024000700040600042426F
:101E70000B4B5B68FB60FB6803F480327B681B6A7A
:101E80009A4206D1FB6803F470127B685B6A9A423F
:101E900001D0012300E0002318461837BD4680BD5D
:101EA0000010024080B584B000AF786039607B6874
:101EB000002B01D10123D0E06A4B1B6803F007031C
:101EC0003A689A4210D9674B1B6823F007026549AC
:101ED0003B6813430B60634B1B6803F007033A68CE
:101EE0009A4201D00123B8E07B681B6803F002032B
:101EF000002B20D07B681B6803F00403002B05D067
:101F0000594B5B68584A43F4E06353607B681B6835
:101F100003F00803002B05D0534B5B68524A43F48F
:101F200060535360504B5B6823F0F0027B689B6802
:101F30004D4913434B607B681B6803F00103002B82
:101F400040D07B685B68012B07D1474B1B6803F4CB
:101F50000033002B15D101237FE07B685B68022BE7
:101F600007D1414B1B6803F00073002B09D10123FB
:101F700073E03D4B1B6803F00203002B01D10123EA
:101F80006BE0394B5B6823F003027B685B68364982
:101F900013434B60FFF7F2FBF8600AE0FFF7EEFB3C
:101FA0000246FB68D31A41F28832934201D90323D7
:101FB00053E02D4B5B6803F00C027B685B689B0071
:101FC0009A42EBD1274B1B6803F007033A689A4209
:101FD00010D2244B1B6823F0070222493B681343AD
:101FE0000B60204B1B6803F007033A689A4201D04C
:101FF000012332E07B681B6803F00403002B08D048
:10200000194B5B6823F4E0627B68DB681649134375
:102010004B607B681B6803F00803002B09D0124B50
:102020005B6823F460527B681B69DB000E49134335
:102030004B6000F021F802460B4B5B681B0903F074
:102040000F030A49CB5C22FA03F3094A1360094BD8
:102050001B681846FFF750FB002318461037BD4693
:1020600080BD00BF0020024000100240F090000838
:10207000000000200400002080B487B000AF0023DF
:10208000FB600023BB6000237B6100237B60002397
:102090003B611E4B5B68FB60FB6803F00C03042B89
:1020A00002D0082B03D027E0194B3B6127E0FB68E7
:1020B0009B0C03F00F03174AD35C7B60FB6803F4AF
:1020C0008033002B10D0114B5B685B0C03F00103D5
:1020D000114AD35CBB607B680D4A03FB02F2BB680C
:1020E000B2FBF3F37B6104E07B680C4A02FB03F371
:1020F0007B617B693B6102E0054B3B6100BF3B6953
:1021000018461C37BD4680BC704700BF0010024017
:1021100000127A00089100081891000800093D009B
:1021200080B400AF024B1B681846BD4680BC7047A8
:102130000000002080B485B000AF78600A4B1B68B7
:102140000A4AA2FB03235B0A7A6802FB03F3FB60E3
:1021500000BFFB685A1EFA60002BF9D100BF00BF18
:102160001437BD4680BC704700000020D34D62107C
:1021700080B584B002AF78600B46FB707B68844A00
:10218000934205D1834B9B69824A43F40073936168
:102190007B68814A934205D17E4B9B697D4A43F41B
:1021A00080639361FB78002B07D100230093002309
:1021B00000220021794800F02FFAFB78012B07D18B
:1021C00000230093002300220121744800F024FA28
:1021D000FB78022B07D10023009300230022022169
:1021E0006E4800F019FAFB78032B07D10023009307
:1021F000002300220321694800F00EFAFB78042B2B
:1022000007D100230093002300220421634800F03B
:1022100003FAFB78052B07D100230093002300224B
:1022200005215E4800F0F8F9FB78062B07D1002362
:102230000093002300220621584800F0EDF9FB78B6
:10224000072B07D1002300930023002207215348C6
:1022500000F0E2F97B685B6843F480727B685A6047
:102260007B689B6843F003027B689A607B689B688D
:1022700043F480127B689A607B689B6823F4006259
:102280007B689A607B689B6823F460227B689A6015
:102290007B689B6843F460227B689A607B68DB6A9A
:1022A00023F470027B68DA627B68DA6A7B68DA6240
:1022B000FB78092B1FD97B68D968FB78A3F10A0248
:1022C00013465B001344072202FA03F3DB4301EADF
:1022D00003027B68DA607B68D968FB78A3F10A02A5
:1022E00013465B001344072202FA03F341EA030298
:1022F0007B68DA601AE07B681969FA7813465B003C
:102300001344072202FA03F3DB4301EA03027B686A
:102310001A617B681969FA7813465B001344072237
:1023200002FA03F341EA03027B681A617B685B6B84
:1023300023F01F027B685A637B685A6BFB781A4351
:102340007B685A637B689B6843F008027B689A60ED
:1023500000BF7B689B6803F00803002BF9D17B6802
:102360009B6843F004027B689A6000BF7B689B68AF
:1023700003F00403002BF9D17B689B6843F48003CE
:1023800043F001037A68936000BF0837BD4680BD03
:1023900000240140001002400028014000080140D4
:1023A00080B483B000AF78600B46FB70FB78092BDC
:1023B0001FD97B68D968FB78A3F10A0213465B003A
:1023C0001344072202FA03F3DB4301EA03027B68AA
:1023D000DA607B68D968FB78A3F10A0213465B00D8
:1023E0001344072202FA03F341EA03027B68DA602E
:1023F0001AE07B681969FA7813465B0013440722D8
:1024000002FA03F3DB4301EA03027B681A617B688B
:102410001969FA7813465B001344072202FA03F3A2
:1024200041EA03027B681A617B685B6B23F01F0241
:102430007B685A637B685A6BFB781A437B685A63E4
:102440007B689B6843F4800343F001037A689360E0
:1024500000BF7B681B6803F00203002BF9D07B6888
:10246000DB6C9BB218460C37BD4680BC704780B50C
:1024700084B000AF78600B46FB701346BB70BB782E
:10248000002B01D100231AE00023FB600023BB6076
:102490000CE0FB7819467868FFF782FF03461A467E
:1024A000FB681344FB60BB680133BB60BB78BA6850
:1024B0009A42EEDBBB78FA68B2FBF3F39BB21846A4
:1024C0001037BD4680BD000080B400AF044BDB6810
:1024D0001B0A03F007031846BD4680BC704700BFC7
:1024E00000ED00E080B483B000AF0346FB7197F9C4
:1024F0000730002B0BDBFB7903F01F02064997F92D
:1025000007305B09012000FA02F241F8232000BFE6
:102510000C37BD4680BC704700E100E080B483B05A
:1025200000AF03463960FB7197F90730002B0ADBD7
:102530003B68DAB20C4997F907301201D2B20B446A
:1025400083F800230AE03B68DAB20849FB7903F01C
:102550000F03043B1201D2B20B441A7600BF0C37B2
:10256000BD4680BC704700BF00E100E000ED00E028
:1025700080B489B000AFF860B9607A60FB6803F09E
:102580000703FB61FB69C3F10703042B28BF042386
:10259000BB61FB690433062B02D9FB69033B00E0F6
:1025A00000237B614FF0FF32BB6902FA03F3DA4389
:1025B000BB681A407B699A404FF0FF317B6901FA92
:1025C00003F3D9437B680B40134318462437BD46B9
:1025D00080BC704780B586B000AF0346B9607A60B2
:1025E000FB7300237B61FFF76FFF78617A68B9683E
:1025F0007869FFF7BDFF024697F90F30114618467C
:10260000FFF78CFF97F90F301846FFF76BFF00BFFD
:102610001837BD4680BD000080B483B000AF78603D
:10262000084611461A460346FB700B46BB7013461C
:102630007B707B68414A934205D1414B9B69404A7C
:1026400043F0040393617B683E4A934205D13C4BBF
:102650009B693B4A43F0080393617B683A4A934283
:1026600005D1374B9B69364A43F0100393617B6871
:10267000364A934205D1324B9B69314A43F02003DD
:1026800093617B68324A934205D12D4B9B692C4A5A
:1026900043F040039361FB78072B18D87B681B68D5
:1026A000FA7892000F2101FA02F2D2431A407B68B5
:1026B0001A607B681B68BA7891003A7C1144FA78FA
:1026C000920001FA02F21A437B681A6019E07B68F3
:1026D0005B68FA78083A92000F2101FA02F2D243BD
:1026E0001A407B685A607B685B68BA7891003A7CD4
:1026F0001144FA78083A920001FA02F21A437B6810
:102700005A607B78012B09D17B68DB68FA7801215C
:1027100001FA02F21A437B68DA6009E07B68DB6841
:10272000FA78012101FA02F2D2431A407B68DA609A
:1027300000BF0C37BD4680BC704700BF0008014099
:1027400000100240000C0140001001400014014044
:102750000018014080B483B000AF78600B46FB7076
:102760007B689B68FA78012101FA02F21340002B82
:1027700014BF01230023DBB218460C37BD4680BCD2
:1027800070470000B0B58AB002AFF8600B467A60BF
:10279000FB720023BB770023BB61874B9B69864A92
:1027A00043F0010393614FF000037B6100237B82C0
:1027B00000233B82FB68814A934216D1FFF7B0FCAD
:1027C00002467D4B5B681B0A03F038037C49CB5CF7
:1027D00042FA03F3BB61784B9B69774A43F4804329
:1027E00093612523FB770123BB77FB68754A9342EE
:1027F00016D1FFF795FC02466F4B5B681B0A03F08E
:1028000007036F49CB5C42FA03F3BB616A4BDB6998
:10281000694A43F40033D3612623FB770223BB7755
:10282000FB68694A934216D1FFF77AFC0246624B75
:102830005B681B0A03F007036149CB5C42FA03F3B0
:10284000BB615D4BDB695C4A43F48023D361272382
:10285000FB770323BB77FB7A002B0FD10323009375
:102860000023022209215948FFF7D6FE00230093D6
:10287000002301220A215548FFF7CEFEFB7A012BE7
:1028800015D1534B5B68524A43F004035360032352
:1028900000930023022206214E48FFF7BDFE0023CD
:1028A00000930023012207214A48FFF7B5FEFB7A77
:1028B000022B0FD10323009300230222022143485D
:1028C000FFF7AAFE002300930023012203213F48C3
:1028D000FFF7A2FEFB7A032B0FD103230093002303
:1028E00002220A213B48FFF797FE002300930023B2
:1028F00001220B213748FFF78FFEB869FDF772FD03
:1029000004460D467868FDF76DFD4FF00002324B2E
:10291000FDF7E2FD02460B4620462946FDF706FF7D
:1029200002460B4610461946FEF7CEF803467B6179
:102930007869FEF703FC03467B827B8A1846FEF724
:10294000CDF9034619467869FEF712F903464FF0B0
:1029500083411846FEF716FA03461846FEF7EEFBCB
:1029600003463B827B8A1A013B8A13441A46FB6862
:102970009A60FB68DB6843F00402FB68DA60FB687E
:10298000DB6843F00802FB68DA60FB68DB6843F44D
:102990000052FB68DA60FB68DB6843F02002FB68EA
:1029A000DA60BA7F97F91F3001211846FFF712FE4F
:1029B00000BF2037BD46B0BD0010024000380140C6
:1029C0000091000800440040004800400008014019
:1029D00000000140000C01400000304080B483B092
:1029E00000AF78600B46FB707B68DA887B689B8859
:1029F0009A421BD27B681B687A68D2881344FA78A3
:102A00001A707B68DB8801339AB27B68DA807B6856
:102A10005B8901339AB27B685A817B68DA887B686C
:102A20009B889A4202D17B680022DA8000BF0C3773
:102A3000BD4680BC704780B483B000AF78600B4661
:102A4000FB7000BF7B681B6803F08003002BF9D08C
:102A5000FA787B685A6000BF0C37BD4680BC70476F
:102A600080B582B000AF094B1B6803F02003002B38
:102A700007D0064B5B68FB71FB7919460448FFF7EA
:102A8000ADFF00BF0837BD4680BD00BF0038014024
:102A90000C00002080B582B000AF094B1B6803F02A
:102AA0002003002B07D0064B5B68FB71FB791946AE
:102AB0000448FFF793FF00BF0837BD4680BD00BF45
:102AC000004400401800002080B582B000AF094BE0
:102AD0001B6803F02003002B07D0064B5B68FB71DB
:102AE000FB7919460448FFF779FF00BF0837BD4658
:102AF00080BD00BF004800402400002080B586B0A3
:102B000000AFF860B9607A6000237B610AE07B69FE
:102B1000BA6813441B7819460748FFF78CFF7B6996
:102B200001337B617A697B689A42F0DB7B681846E7
:102B30001837BD4680BD00BF0038014080B483B067
:102B400000AF78607B6800221A707B6800225A70A0
:102B50007B680233204A1068186092889A807B68EC
:102B600001229A747B6800225A617B681B4A9A6131
:102B70007B6808229A837B68194A5A637B68002223
:102B800083F838207B683933164A106818607B68F0
:102B90004133154A106818607B68144A9A657B684F
:102BA000134ADA657B68134A1A667B68124A9A668A
:102BB0007B68124ADA667B684FF000021A677B680E
:102BC0000F4A5A677B68002283F8642000BF0C37E5
:102BD000BD4680BC704700BFB88B000800080140AC
:102BE00000401C46C08B0008C48B000800007041E8
:102BF0000000C841000048426666CC42A2451EC0A3
:102C00000000FA4380B483B000AF78607B68012293
:102C10001A707B6801225A707B6802331F4A106861
:102C2000186092889A807B6801229A747B680122DE
:102C30005A617B681A4A9A617B6810229A837B6882
:102C4000184A5A637B68012283F838207B6839333D
:102C5000154A106818607B684133144A1068186080
:102C60007B68134A9A657B68124ADA657B68124A68
:102C70001A667B68114A9A667B68114ADA667B6835
:102C8000104A1A677B68104A5A677B68002283F8EB
:102C9000642000BF0C37BD4680BC7047C88B00085D
:102CA0000008014000401C46D08B0008C48B00087F
:102CB00000004844000096440000FA443333E942DF
:102CC0004C3731C00000964300409C4590B583B01E
:102CD00000AF78607B685B69184600F0C5F9024672
:102CE0007B681A627B689A697B689B8B19461046E1
:102CF00000F0EAF903461A467B6883F82C20FEF7B9
:102D00003DFD02467B681A637B681B6A3F49184693
:102D1000FEF7F4F90346002B59D07B681B6A18466E
:102D200000F0E4F902467B685A627B685A6A7B6865
:102D30005B6B19461046FEF7D9F803461A467B68C6
:102D40009A627B68986A7B68996E7B68DB6E1A462C
:102D500000F0F4F902467B68DA647B68DA6C7B6821
:102D60001B6F19461046FEF7ABF90346002B03D044
:102D70007B681A6F7B68DA647B68DA6C7B685B6FF0
:102D800019461046FEF7BAF90346002B03D07B68BC
:102D90005A6F7B68DA647B681B6D1D491846FDF726
:102DA000F1FF03461C467B68DB6C18491846FDF7AB
:102DB000E9FF034619462046FDF7DCFE03461A46A6
:102DC0007B681A657B681A6D7B685A650FE07B68C3
:102DD0004FF000025A627B684FF000029A627B68F3
:102DE0001A6F7B68DA647B681A6F7B681A6578688B
:102DF00000F010F803461A467B68DA74786800F031
:102E00005BF800BF0C37BD4690BD00BFCDCC4C3E3B
:102E1000CDCC4C3F80B582B000AF78607B681B6A38
:102E200021491846FEF74CF90346002B08D17B6870
:102E30001B6A1E491846FEF761F90346002B01D0B4
:102E400000232CE07B685B6A19491846FEF738F9C5
:102E50000346002B08D17B685B6A16491846FEF7CB
:102E60004DF90346002B01D0002318E07B68DA6C93
:102E70007B681B6F19461046FEF722F90346002BAC
:102E80000AD17B68DA6C7B685B6F19461046FEF7E7
:102E900035F90346002B01D0002300E0012318463A
:102EA0000837BD4680BD00BFCDCC4C3E9A999940B5
:102EB00000007A440050434880B582B000AF78608B
:102EC0007B68186D7B68996D7B68DA6D7B681B6E1B
:102ED00000F053F903461A467B6883F8642000BF6C
:102EE0000837BD4680BD00002DE9F0438DB006AF28
:102EF00078607B68991C7B6839331A464D4801F02D
:102F0000BBFB7B681B7819467B689B7C002B07D03A
:102F10007B68DB7C002B01D0474B02E0474B00E095
:102F2000474B1A46474801F0A7FB7B681B6A1846C7
:102F3000FDF77AFA04460D467B685B6A1846FDF792
:102F400073FA02460B46CDE9002322462B463E4843
:102F500001F092FB7B689B6A1846FDF765FA044610
:102F60000D467B685B6B1846FDF75EFA02460B4622
:102F7000CDE9002322462B46344801F07DFB7B68D7
:102F8000DB6C1846FDF750FA04460D467B6803F1EA
:102F900041067B681B6D1846FDF746FA02460B4654
:102FA000796841310491CDE90223009622462B46EF
:102FB000274801F061FB7B6893F82C30002B01D08F
:102FC000244B00E0244B1946244801F055FB244BC8
:102FD00007F108040FCB84E80F007B6893F8643096
:102FE0009B0018333B4453F8106C7B689B6D18466C
:102FF000FDF71AFA804689467B68DB6D1846FDF7B7
:1030000013FA04460D467B681B6E1846FDF70CFA52
:1030100002460B46CDE90223CDE9004542464B4628
:103020003146104801F028FB00BF1C37BD46BDE803
:10303000F08300BFD48B0008E88B0008F48B0008F5
:10304000F88B0008FC8B0008188C0008408C0008E6
:103050005C8C0008808C0008888C00088C8C000830
:10306000E08C00089C8C000880B586B000AF7860CA
:103070007B68DBB20A2219460F48FFF7F8F90346CE
:103080001846FDF727FE03467B610C497869FDF77A
:1030900079FE03460A491846FDF728FF03463B61BF
:1030A00008493869FDF722FF0346FB60FB681846B4
:1030B0001837BD4680BD00BF002401403333534064
:1030C00000F07F45C3F5283F80B582B000AF78603F
:1030D0000B467B807B88DBB219467868FFF73AFBAA
:1030E000034618460837BD4680BD000080B582B053
:1030F00000AF78600E497868FDF7ECFF0346002BBF
:1031000002D04FF000030EE079680A48FDF730FD69
:10311000034679681846FDF7E9FE03460649184656
:10312000FDF730FE034618460837BD4680BD00BF98
:10313000CDCCCC3D0000A04000401C4680B584B002
:1031400000AFF860B9607A604FF00001F868FDF7F1
:10315000C1FF0346002B02D04FF0000309E079685D
:10316000F86804F027FF0346B9681846FDF70AFE21
:10317000034618461037BD4680BD80B584B000AF09
:10318000F860B9607A603B603968F868FDF7ACFFB9
:103190000346002B01D0032312E07968F868FDF79D
:1031A000A3FF0346002B01D0022309E0B968F868A9
:1031B000FDF79AFF0346002B01D0012300E0002316
:1031C00018461037BD4680BD80B584B002AF384880
:1031D00001F0BAFA4FF482720021364801F0B4FBD4
:1031E00043F6F0420021344801F0AEFB3148FFF7CE
:1031F000A5FC3248FFF706FD0023009301230022BF
:1032000008212F48FFF708FA00230093012300222A
:1032100010212B48FFF700FA00212A48FEF7A8FFEB
:1032200001212848FEF7A4FF224B022283F8F02058
:10323000FEF7A4FA03461F4AC2F8F4301D4B9B7CEC
:10324000002B01D0204B00E0204B1946204801F014
:1032500013FA184B93F88A30002B01D01A4B00E078
:103260001A4B19461B4801F007FA124B93F8F0303D
:103270001946194801F000FA184801F065FA1E23B2
:103280007B600AE07968164801F0F6F94FF47A702D
:10329000FEF77EFA7B68013B7B607B68002BF1DCEC
:1032A000104801F051FA00BF0837BD4680BD00BF8D
:1032B000F08C00085003002054040020C8030020B4
:1032C0000008014000240140088D00080C8D000812
:1032D000148D0008308D00084C8D0008688D0008A2
:1032E000848D0008988D000880B582B000AFFEF78D
:1032F00045FA78607968194801F0BEF9184B9B7C53
:10330000002B02D01648FFF7E1FC154B93F88A30EA
:10331000002B02D01348FFF7D9FC00F025FA00F08B
:10332000F3F90F4BD3F8F83001330D4AC2F8F830F7
:103330000B4A7B68C2F8F4307868FDF7CBFC034693
:1033400009491846FDF7D2FD03461A46044BC3F857
:10335000002100BF0837BD4680BD00BFB08D00080A
:1033600050030020C803002000606A4790B589B070
:1033700000AF294801F0E8F9FEF700FA0446274BB0
:10338000D3F800311846FDF74FF802460B462146A8
:10339000234801F071F92148FFF7A6FD2148FFF706
:1033A000A3FD214801F0D0F9204B07F110040FCB09
:1033B00084E80F001E4B3C460FCB84E80F00174BF0
:1033C00093F8F1309B0020333B4453F8103C134AF0
:1033D00092F8F0201946174801F04EF90F4B93F878
:1033E000F2309B0020333B4453F8203C19461248EE
:1033F00001F042F9094BD3F8F830084AD2F8FC2022
:1034000019460E4801F038F90D4801F09DF900BF4A
:103410002437BD4690BD00BFD08D0008500300206A
:10342000F88D0008C80300201C8E0008D48E000808
:10343000088F0008308E00085C8E0008748E00082B
:10344000948E0008B0B584B002AF264801F07CF934
:1034500000237B603CE07B6801331946224801F081
:103460000BF9FFF741FF00F0F9F803461846FCF7A7
:10347000DBFF04460D4600F017F903460093224691
:103480002B461A4801F0F8F800F0FAF803461846FF
:10349000FCF7CAFF04460D4600F012F903460093FC
:1034A00022462B46124801F0E7F800F021F90346C6
:1034B0001C4600F011F903461A4621460D4801F05A
:1034C000DBF840F6B830FEF763F97B6801337B60C8
:1034D0007B68092BBFDD084801F036F900BF0837CB
:1034E000BD46B0BD188F0008348F0008448F000817
:1034F000688F00088C8F0008B08F0008F0B589B085
:1035000002AF4B4801F020F94A4801F01DF94A4842
:1035100001F01AF94FF000037B614FF000033B61AB
:103520000023FB600023BB603EE0FFF7DDFE434B62
:10353000DB7C002B18D0414B93F88B30002B13D041
:103540003E4B5B6A19467869FDF714FB03467B61C5
:103550003A4BD3F89C3019463869FDF70BFB03460C
:103560003B61FB680133FB60BB685E1C334B5B6AED
:103570001846FCF759FF04460D46304BD3F89C30F3
:103580001846FCF751FF02460B46CDE900232246C0
:103590002B4631462A4801F06FF84FF47A70FEF757
:1035A000F7F8BB680133BB60BB681D2BBDDDFB6852
:1035B000002B35DDF868FDF791FB03461946786965
:1035C000FDF794FC03467B60F868FDF787FB034634
:1035D00019463869FDF78AFC03463B60174A7B6849
:1035E0005363164A3B68C2F8AC30164801F0ACF899
:1035F0007868FCF719FF02460B46134801F03CF8C7
:103600003868FCF711FF02460B46104801F034F809
:10361000F9680F4801F030F80E4801F095F802E023
:103620000D4801F091F800BF1C37BD46F0BD00BF4A
:10363000C08F0008D88F00080090000850030020B9
:103640001C900008449000085C90000870900008EE
:103650008490000898900008B090000880B400AFF3
:10366000064BDB7C002B02D0044B1B6D01E04FF0BE
:1036700000031846BD4680BC704700BF50030020C1
:1036800080B400AF074B93F88B30002B03D0054B71
:10369000D3F8C83001E04FF000031846BD4680BCA7
:1036A000704700BF5003002080B400AF034B93F875
:1036B00064301846BD4680BC704700BF50030020F0
:1036C00080B400AF034B93F8DC301846BD4680BC95
:1036D000704700BF5003002080B400AF034B93F845
:1036E000F2301846BD4680BC704700BF5003002032
:1036F00080B400AF034B93F8F1301846BD4680BC50
:10370000704700BF5003002080B500AF124B1B78FC
:103710001946124A0B469B010B449B001344104A66
:10372000184611464FF482731A4601F09AF90A4B73
:103730001B785A1C0B4B83FB021313445911D317EC
:10374000C91A0B461B015B1A9B00D11ACAB2024B65
:103750001A7000BF80BD00BF444100205404002007
:10376000500300208988888880B483B000AF00238C
:10377000FB710023BB71284B9B7C002B10D0264B88
:10378000DB7C002B0CD0FB790133FB71224B93F8CF
:103790006430BA799A4203D21F4B93F86430BB71FC
:1037A0001D4B93F88A30002B11D01B4B93F88B30B4
:1037B000002B0CD0FB790133FB71174B93F8DC30F5
:1037C000BA799A4203D2144B93F8DC30BB71FB797F
:1037D000022B04D1104B032283F8F12012E0FB7975
:1037E000012B04D10C4B022283F8F1200AE00A4B92
:1037F000002283F8F120084BD3F8FC300133064A4D
:10380000C2F8FC30044ABB7982F8F23000BF0C37B2
:10381000BD4680BC704700BF50030020002B2DE93F
:10382000F0471D46BBBF03F100431D4600232D2377
:1038300088B01446B8BF1446129A109E1370149B99
:10384000DDF84CA023F02008B8F1460F05D0B8F100
:10385000450F00D10136022300E0032307AA04929A
:1038600006AACDE902A2CDE9003622462B4601F098
:1038700093F9B8F1470F074619D1119BDB070ED515
:1038800000EB06090022002320462946FDF78CF8AC
:1038900008B1CDF81C903022079B4B451ED338460B
:1038A000079B159ADB1B136008B0BDE8F087B8F1E1
:1038B000460F00EB0609E5D10378302B0AD1002230
:1038C000002320462946FDF76FF818B9C6F1010616
:1038D000CAF80060DAF800309944D3E7591C079120
:1038E0001A70D9E7F7B50029B6BF2D232B2349421B
:1038F00009290270437029DD0DF107031D460A27CF
:10390000B1FBF7F61A4607FB1614303402F8014CE7
:103910000C46632C314603F1FF33F1DC3031941E49
:1039200003F8011C2346411CAB420AD30DF10903E5
:103930009B1AAC4288BF002302330344181A03B019
:10394000F0BD13F8016B01F8016FEDE73023303162
:103950008370C170031DF1E72DE9F04F91B00C4663
:10396000DDF8688016461F46054600F0F5FF03683F
:1039700018460893FCF7ECFB00230E93D8F80030B0
:103980000990073323F0070303F1080294F818A005
:10399000D4F800B0C8F80020D3E9008929F000432A
:1039A0000B93CDF828804FF0FF32DDE90A01C4E91E
:1039B00012899C4BFDF72AF870BBDDE90A014FF034
:1039C000FF32984BFDF704F830BB0022002340463D
:1039D0004946FCF7F3FF10B12D2384F84330924A97
:1039E000924BBAF1470F94BF9046984603234FF08D
:1039F000000923612BF00403236033462146284647
:103A000000970FAA00F0D4F9013040F090804FF0F9
:103A1000FF3011B0BDE8F08F42464B464046494664
:103A2000FCF7F4FF48B14B46002BB8BF2D23804A6A
:103A3000B8BF84F843307F4BD3E763680AF0DF01F7
:103A40005A1C3FD10623636000224BF4806323603D
:103A500006920EAACDE904A20DAA03920DF133023B
:103A6000CDE9013263684246009328464B460A91ED
:103A7000FFF7D4FE0A99804647290D9928D1C81C22
:103A800002DB6368994240DDAAF1020A5FFA8AFA12
:103A90005246013904F150000D91FFF723FF0E9AB1
:103AA00081461318012A236102DC2268D20701D55E
:103AB000013323619DF83330002B9ED02D2384F8F1
:103AC00043309AE74729BFD1002BBDD10123BAE784
:103AD000BAF1650FDCD9BAF1660F18D10029636815
:103AE0000BDD216113B92268D00702D501330B44E5
:103AF00023614FF00009A165DCE713B92268D20702
:103B000001D50233F4E70123F2E74FF0670A0E9B79
:103B1000994205DB23682161D807EAD54B1CE7E70A
:103B20000029CCBF0122C1F102021344E0E723685F
:103B30005A0507D42369424631462846B847013022
:103B40002BD164E7BAF1650F40F2DC80D4E91201B1
:103B500000220023FCF728FF002833D00123314640
:103B60002846354AB84701303FF451AFDDE90D38FA
:103B7000434502DB2368D8070FD5DDE9082331462A
:103B80002846B84701303FF442AF4FF0000908F132
:103B9000FF3804F11A0AC84509DC23689B0700F1C5
:103BA0000281E0680F9B9842B8BF184631E70123B5
:103BB000524631462846B84701303FF428AF09F154
:103BC0000109E8E70D9B002B38DC0123314628462C
:103BD000194AB84701303FF41AAFDDE90D3959EA07
:103BE000030302D12368D907D7D5DDE9082331467D
:103BF0002846B84701303FF40AAF4FF0000A04F1FD
:103C00001A0B0D9B5B42534501DC4B4693E70123A6
:103C10005A4631462846B84701303FF4F8AE0AF11B
:103C2000010AEEE7FFFFEF7F1A9100081E910008DE
:103C300022910008269100082A910008A36DDDF862
:103C400038A05345A8BF5346002B994636DC4FF0A9
:103C5000000B29EAE97904F11A02A36D0A93A3EB98
:103C600009035B4531DC0D9B9A453ADC2368DA0792
:103C700037D40D9BAAEB03090A9BAAEB03039945D2
:103C8000A8BF9946B9F1000F33DC4FF0000829EACC
:103C9000E97904F11A0B0D9BAAEB0303A3EB0903CB
:103CA00043457FF77AAF01235A4631462846B84745
:103CB00001303FF4ACAE08F10108ECE74246314672
:103CC0002846B8470130C2D1A1E601233146284633
:103CD0000A92B84701303FF49AAE0A9A0BF1010BF1
:103CE000BBE73146DDE908232846B8470130C0D19B
:103CF0008DE60A9A4B46314628464244B847013081
:103D0000C3D184E6DDF838A0BAF1010F01DCDB078E
:103D100036D50123424631462846B84701303FF4A4
:103D200076AEDDE9082331462846B84701303FF436
:103D30006EAED4E91201002200230AF1FF3AFCF72B
:103D400033FEC0B9534608F1010231462846B84750
:103D500001300CD15BE601235A4631462846B8476C
:103D600001303FF454AE08F10108D045F3DB4B4677
:103D700004F15002E0E64FF0000804F11A0BF4E7FA
:103D800001234246E1E701234A4631462846B84727
:103D900001303FF43CAE08F10108E3680F995B1A6B
:103DA0004345F0DCFDE64FF0000804F11909F4E7A3
:103DB0002DE9F047164698468A680B6907469342F4
:103DC000B8BF1346336091F843200C46DDF82090CD
:103DD0000AB1013333602368990642BF3368023366
:103DE0003360256815F0060506D104F1190AE36869
:103DF00032689B1AAB422BDC94F843302268003BBC
:103E000018BF0123920630D44146384604F14302DC
:103E1000C847013023D02368226903F00603042B2E
:103E200014BF002533684FF0000608BFE56804F1B1
:103E30001A0408BFED1A54F8123C08BF25EAE575CC
:103E40009342C4BF9B1AED18B5421AD1002008E076
:103E50000123524641463846C847013003D14FF04E
:103E6000FF30BDE8F0870135C1E73020E11881F867
:103E700043005A1C94F845102244023382F8431040
:103E8000C2E70123224641463846C8470130E6D002
:103E90000136D9E72DE9FF470F7E9146782F8046FE
:103EA0000C469A460C9E01F1430207D8622F0AD8AD
:103EB000002F00F0D380582F00F0BA8004F14206A2
:103EC00084F842703AE0A7F16303152BF6D801A1FC
:103ED00051F823F02D3F0008413F0008BD3E000887
:103EE000BD3E0008BD3E0008BD3E0008413F000841
:103EF000BD3E0008BD3E0008BD3E0008BD3E0008B6
:103F0000434000086B3F0008FD3F0008BD3E00082D
:103F1000BD3E000865400008BD3E00086B3F00083C
:103F2000BD3E0008BD3E00080540000833681A1D6C
:103F30001B68326004F1420684F8423001239EE09F
:103F400033682068191D3160060601D51D6803E03D
:103F50004506FBD5B3F90050002D03DA2D236D4241
:103F600084F843300A23594811E021683368080671
:103F700053F8045B02D4490648BFADB26F2F3360DB
:103F800014BF0A2308235148002184F843106668AF
:103F9000002EA8BF2168A660A4BF21F00401216003
:103FA0000DB9002E4BD01646B5FBF3F103FB1157AC
:103FB000C75D06F8017D2F46BB420D46F4D9082B9C
:103FC0000BD12368DF0708D5236961689942DEBFFA
:103FD000302306F8013C06F1FF36921B22614B4666
:103FE00021464046CDF800A003AAFFF7E1FE0130CC
:103FF0004AD14FF0FF3004B0BDE8F087236843F0AA
:10400000200323607827324884F84570236831689C
:104010001F0651F8045B02D45F0648BFADB23160A1
:10402000D90744BF43F0200323601DB11023ABE741
:104030002648E9E7236823F020032360F6E71646C5
:10404000BDE733682568181D616930602E061B685E
:1040500001D5196002E06806FBD5198000231646D9
:104060002361BCE7336800211A1D32601E68626854
:10407000304600F0E8FC08B1801B60606368236193
:10408000002384F84330AAE7324649464046236974
:10409000D0470130ADD023689B0713D4E068039B61
:1040A0009842B8BF1846A6E7012332464946404623
:1040B000D04701309DD00135E36803995B1AAB42CC
:1040C000F2DCEBE7002504F11906F5E72C91000876
:1040D0003D9100082DE9F04F87B003938B68174698
:1040E0005A1EB2F5AE7F82BF6FF4AE7503EB050BBF
:1040F00040F25D130A464FF0000588BF8B600B68E5
:10410000804643F4F06342F81C3B0C4698BF4FF0E6
:10411000000B1646AA46A946CDE904550192029520
:10412000A26852B13B681B784E2B65D8402B3DD816
:10413000A3F12B01C8B20E283BD9B9F1000F03D06F
:10414000236823F4807323600AF1FF3ABAF1010F68
:1041500000F21881019B9E4200F20981012007B004
:10416000BDE8F08FA3F161020D2AE6D801A151F854
:1041700022F000BFBB4200083B4100083B41000861
:104180003B4100081B430008F34200083B41000884
:104190003B410008C94200083B4100083B41000880
:1041A0003B4100083B41000881420008A3F1410265
:1041B000DAE70E29C1D801A050F821F071420008B9
:1041C0003B41000871420008074300083B410008DA
:1041D0001942000857420008574200085742000899
:1041E000574200085742000857420008574200084B
:1041F00057420008574200086E2B09D8602BB1D8EF
:10420000542B7BD0592B98D1072D96D108252CE023
:10421000742B73D0792BF6E72168C8051BD521F0E4
:104220008001216009F10109BBF1000F03D00132C7
:104230000BF1FF3BA260A368013BA360236901333C
:1042400023617B68013B002B7B6040F387803B68E8
:1042500001333B6064E71AEB05017FF46EAF0D4656
:104260008A46226822F4C072226006F8013BE2E727
:10427000226810067FF561AF22F080022260F4E729
:10428000BAF1000F0ED1B9F1000F0ED1226802F47D
:10429000E061B1F5E06F08D122F4F0624FF0010A5D
:1042A0002260E2E7BAF1020F55D0012D02D0042DB1
:1042B0007FF443AF0135EDB2D7E7BAF1010F7FF4D8
:1042C0003CAF4FF0020AD0E77DB9B9F1000F7FF49F
:1042D00037AF226802F4E061B1F5E06F40F003818E
:1042E00022F4F06201252260BFE7032DE2D0052D04
:1042F000DEE7022D7FF421AF0325B6E7062D7FF41C
:104300001CAF0725B1E7226891057FF516AF22F4AF
:1043100020722260CDF80890A7E7226802F4A0611D
:10432000B1F5806F06D050057FF507AFB9F1000FEA
:1043300000F0D980910558BF029922F4F06258BF6D
:10434000A9EB010142F4C0724FF0000958BFCDE95A
:104350000416226089E74FF0030A86E73946404693
:10436000D4F88031984700283FF4DAAEE5E6D4F877
:104370007C313A46404616F8011D98472369013BB7
:104380002361E7E66B1E062B24D8022D36D8019B4D
:104390009E427FF6E3AED4F87C313A46404616F8AA
:1043A000011D98472369013B2361F0E7D4F87C3174
:1043B0003A4640461BF8011D98472369013B23619B
:1043C0000AF1FF3A5FFA8AFABAF1020FEED1033D21
:1043D000EDB2761B2368DA0530D55B0511D5019B5C
:1043E0009E427FF6BBAED4F87C313A46404616F882
:1043F000011D98472369013B2361F0E7AA46B346B4
:10440000DEE716F8011C2369652903F1FF3306F185
:10441000FF3523610CD045290AD0D4F87C313A46C7
:1044200040469847236916F8021C013BB51E2361DC
:104430003A464046D4F87C3198472E46226812F01E
:10444000100201D000208AE63270236803F4C063B2
:10445000B3F5806F1CD1029B4B45A3EB090223D11E
:1044600000224046019902F0FFFC039B25681B686F
:1044700015F0020F06460F4603F104021FD0039900
:104480000A601B68C3E90067E3680133E360D9E7AA
:10449000049B002BE4D005990A234046013102F029
:1044A00063FD049B059EC21A04F26F139E4228BF4F
:1044B00004F5B77630460D4900F04EF9D0E76D07A8
:1044C000DDD4039D2A601D6802460B46FCF79EFA68
:1044D00020B1074800F0D4FA2860D5E730463946C5
:1044E000FCF7F2FAF8E74FF000092DE64E910008CC
:1044F000E5940008002310B50446C0E90033C0E984
:104500000433836081814366C28183611946082236
:104510005C3000F019FA0D4B246263620C4BA3620D
:104520000C4BE3620C4B23630C4B9C4206D003F113
:104530006802944202D0D0339C4205D104F1580065
:10454000BDE8104000F07CBA10BD00BF99470008DC
:10455000BB470008F34700081748000848410020FF
:10456000024A0349034800F069B800BF3000002048
:104570009D7500084000002041680C4B10B5994221
:10458000044601D003F00AF8A168094B994202D011
:10459000204603F003F8E168064B994204D0204618
:1045A000BDE8104002F0FABF10BD00BF4841002036
:1045B000B04100201842002010B50B4B0B4C0C4AA8
:1045C00020461A6004210022FFF794FF04F16800DE
:1045D00001220921FFF78EFF04F1D0000222BDE87D
:1045E00010401221FFF786BF804200204841002082
:1045F00061450008014800F024BA00BF894200204C
:10460000014800F01FBA00BF8942002010B50446DF
:10461000FFF7F0FF236A1BB1BDE81040FFF7F0BFC2
:10462000044B2362044B1B68002BF5D1FFF7C4FF3A
:10463000F2E700BF79450008804200202DE9F843E9
:104640000746884614460026D4E90195B9F10109C8
:1046500005D52468002CF7D13046BDE8F883AB8936
:10466000012B07D9B5F90E30013303D0294638465E
:10467000C04706436835E9E70FB407B5064904AB00
:10468000086853F8042B8168019302F0EFFD03B032
:104690005DF804EB04B070473C000020036A70B57D
:1046A00005460E4684680BB9FFF7B0FF636EDB0763
:1046B00005D4A389980502D4A06D00F0C2F9A3899E
:1046C000190702D52369002B35D12146284600F071
:1046D000E5F880B34FF0FF35636EDA0705D4A389A0
:1046E0009B0502D4A06D00F0ADF9284670BD002BEB
:1046F00004DAA2699A4217DC0A2915D023685A1CE9
:1047000022601970A36816F8011F013BA3600029FD
:10471000EDD1002B11DA22460A21284600F07FF85D
:104720000130D7D00A25D7E72246284600F077F88F
:104730000130E7D1CEE7013EE4E723685A1C22604E
:104740000A221A70EEE70000024B01461868FFF7D4
:10475000A5BF00BF3C0000200EB46FF0004100B5C3
:104760009CB01DAB0290069007910491084809493E
:1047700053F8042B0591006802A9019302F052FC42
:104780000022029B1A701CB05DF804EB03B0704766
:104790003C0000200802FFFF10B50C46B1F90E10D6
:1047A00000F000F90028ABBF636DA3891B1823F448
:1047B0008053ACBF6365A38110BD2DE9F0411F4656
:1047C0008B890546DB050C46164605D502230022DB
:1047D000B1F90E1000F0D4F8A389324623F48053C7
:1047E000A38128463B46B4F90E10BDE8F04100F025
:1047F000EBB810B50C46B1F90E1000F0C1F8431C2F
:10480000A38915BF606523F4805343F48053A381CB
:1048100018BFA38110BDB1F90E1000F0A1B8F8B512
:104820000E461446054618B1036A0BB9FFF7EEFEB3
:10483000A369A360A3891A0701D5236943B9214657
:10484000284600F02BF818B14FF0FF373846F8BD76
:1048500023682269F6B2981A63693746834205DCF9
:104860002146284602F09AFE0028EDD1A368013BBC
:10487000A36023685A1C22601E706269431C9A421E
:1048800004D0A389DB07E1D50A2EDFD121462846D3
:1048900002F084FE0028D9D0D6E7000038B5294BB5
:1048A000054618680C4618B1036A0BB9FFF7AEFE4F
:1048B000B4F90C30190722D4DA0607D409222A6089
:1048C00043F040034FF0FF30A38133E0580712D587
:1048D000616B41B104F14403994202D0284600F0D3
:1048E00023FF00236363A38923F02403A381002310
:1048F000636023692360A38943F00803A3812369CC
:104900004BB9A38903F42073B3F5007F03D021468C
:10491000284602F090FEB4F90C3013F001020AD0E0
:104920000022A26062695242A261226942B913F078
:104930008000C5D138BD990758BF6269A260F4E70D
:104940000020F7E73C00002003460244934200D1D8
:10495000704703F8011BF9E7004870477C0100200D
:1049600038B50023054D044608462B60FCF71BFEB6
:10497000431C02D12B6803B1236038BD8442002060
:1049800038B50446084611460022054D2A601A46ED
:10499000FCF72DFE431C02D12B6803B1236038BD08
:1049A0008442002038B50446084611460022054DD1
:1049B0002A601A46FCF7DAFD431C02D12B6803B1CA
:1049C000236038BD8442002038B5044608461146AD
:1049D0000022054D2A601A46FEF790F8431C02D1CA
:1049E0002B6803B1236038BD84420020014B186856
:1049F000704700BF3C00002070B500260C4D0D4CE8
:104A0000641BA410A64209D103F066FF00260A4DDC
:104A10000A4C641BA410A64205D170BD55F8043B96
:104A200098470136EEE755F8043B98470136F2E720
:104A30006895000868950008689500086C9500085E
:104A4000704770477047034610B5C9B2024493429D
:104A5000184601D1002003E0047801338C42F6D1DE
:104A600010BD0A44914200F1FF3300D1704710B5E8
:104A700011F8014B914203F8014FF9D110BD00002C
:104A8000004870470000C07F2DE9F74F03690C69AB
:104A90000746A3427EDB013CA30000F1140501F1AF
:104AA0001408009305EB8403019358F8243055F85B
:104AB000242001339A42B2FBF3F608EB84092ED38B
:104AC0004FF0000AC446AE46D3465CF8043B98B2A9
:104AD00006FB00A01B0C020C06FB0323DEF80020E3
:104AE00080B292B2121A5A44DEF800004FEA134A1A
:104AF0009BB2C3EB224303EB104392B242EA034260
:104B0000E1454FEA234B4EF8042BDED2009BEB58D5
:104B10002BB9019B043B9D421A462FD33C6138467A
:104B200001F0C2F9002825DB2946002058F8042BA3
:104B3000D1F800C01FFA82FE1FFA8CF3A3EB0E031C
:104B40000344120CC2EB234202EB1C429BB243EA29
:104B50000243C1454FEA224041F8043BE6D255F8F2
:104B6000242005EB840322B9043B9D421A460BD353
:104B70003C610136304603B0BDE8F08F1268043B5B
:104B8000002ACBD1013CC6E71268043B002AEFD1D2
:104B9000013CEAE70020EEE72DE9F04F14461D4600
:104BA000C76997B08346CDE90245239E7FB910209F
:104BB00000F002FE0246CBF81C0020B9EF21A84B02
:104BC000A84802F0D9FDC0E901770760C760DBF8AB
:104BD0001C30196859B15A68012393404A608B60B0
:104BE000584600F0DFFE0022DBF81C301A602B1E56
:104BF000AFBF0023012223F000430393A8BF33601B
:104C0000DDF80C80984BB8BF326033EA080312D14C
:104C100042F20F73229A1360C8F31303234300F088
:104C20005085249BDFF844A2002B00F052850AF146
:104C3000030300F04CBDDDE90223CDE90C23DDE9DF
:104C40000C0100220023FBF7AFFE074658B10123F9
:104C5000229A1360249B13B1854B249A1360DFF8CA
:104C600014A200F036BD14AB019315AB0093584667
:104C7000DDE90C2301F030FAC8F30A568146002E14
:104C800077D0DDE90C010D9BA6F2FF36C3F31303C9
:104C900043F07F5343F44013129719460022764B9A
:104CA000FBF762FA68A3D3E90023FBF715FC68A3BE
:104CB000D3E90023FBF75AFA044630460D46FBF7CA
:104CC000A1FB65A3D3E90023FBF706FC02460B46D4
:104CD00020462946FBF74AFA04460D46FBF7ACFE90
:104CE00000220746002320462946FBF767FE40B115
:104CF0003846FBF787FB22462B46FBF755FE00B9EB
:104D0000013F162F53D8DDE90C015C4B03EBC703C1
:104D1000D3E90023FBF752FE00284AD00023013FCD
:104D20000F93149B9B1B5A1E46BFC3F1010800231F
:104D30004FF00008099248BF0993002F3BDB099B05
:104D40000E973B44099300230A93209B092B66D8B6
:104D5000052BC4BF043B2093209BC8BF0024A3F1B4
:104D60000203D8BF0124032B64D8DFE803F02B38FB
:104D70003656DDE914631E4406F23243202BC1BFD0
:104D8000C3F1400308FA03F806F2124324FA03F3CE
:104D9000D6BFC3F1200348EA030004FA03F0FBF78F
:104DA00021FB0122A1F1F873013E129275E7012364
:104DB000B6E70F90B5E77B420A930023A8EB0708FC
:104DC0000E93C2E700230B93219B002B35DC0123BC
:104DD0001A46CDE9073321920BE00123F3E70023C4
:104DE0000B93219BFB1808930133012B0793B8BF4A
:104DF000012300210422DBF81C0002F114059D426E
:104E00001FD94160584600F08DFD8246002839D1F7
:104E1000024640F2AF111A4BD2E60123E0E701242B
:104E200000230B9420934FF0FF330022CDE907338A
:104E30001223D0E701230B93F5E7219BCDE907333C
:104E4000D7E701315200D8E761436F63A787D23FAC
:104E5000B3C8608B288AC63FFB799F501344D33F69
:104E600060910008779100080000F07F5C910008D5
:104E70002B9100082A9100080000F83F709200086A
:104E8000CF910008DBF81C301860079B0E2B00F256
:104E9000A480002C00F0A180002F33DD864B07F0AA
:104EA0000F0203EBC203F805D3E90034CDE9043463
:104EB0004FEA271416D5DDE90C01804B0326D3E910
:104EC0000823FBF733FCCDE9020104F00F047B4D0E
:104ED00054B9DDE90423DDE90201FBF727FCCDE944
:104EE000020128E00226F2E7E10708D5DDE9040126
:104EF000D5E90023FBF7F0FACDE90401013664108F
:104F00000835E5E700F0D280DDE90C017C426A4B10
:104F100004F00F0203EBC203D3E90023FBF7DCFA32
:104F200002260023CDE90201644D2411002C40F03B
:104F3000B280002BD3D1DDE902450F9B002B00F09E
:104F4000B7800022204629465D4BFBF737FD00283D
:104F500000F0AE80079B002B00F0AA80089B002B7E
:104F600037DD7B1E2046049300222946554BFBF774
:104F7000B3FACDE90201089C01363046FBF742FA4C
:104F8000DDE90223FBF7A8FA00224F4BFBF7EEF80E
:104F90000546A1F15076002C40F09A80DDE902012F
:104FA00000224A4BFBF7E0F802460B46CDE902230C
:104FB0002A463346FBF720FD002840F08E82DDE9CB
:104FC00002012A4606F10043FBF7F8FC002840F0F6
:104FD0002781DDE90C34CDE90234159B002BC0F2AA
:104FE00063810E2F00F36081334B03EBC703D3E9DA
:104FF0000034CDE90434219B002B03DA079B002BFE
:1050000040F30081DDE902455646DDE904232046F0
:105010002946FBF78BFBFBF70FFD8046FBF7F2F908
:10502000DDE90423FBF758FA02460B4620462946E1
:10503000FBF79AF808F13004079D06F8014BA6EB40
:105040000A04A54202460B4640F01681FBF78EF893
:10505000DDE9042304460D46FBF7CEFC002840F0B2
:10506000F880DDE9042320462946FBF79DFC18B1B2
:1050700018F0010F40F0ED804946584600F092FCD0
:1050800000233370229B01371F60249B002B00F00C
:1050900020831E601DE3E20705D5D5E90023FBF759
:1050A0001BFA01230136641008353FE7022642E768
:1050B000079C049761E700BF7092000848920008BF
:1050C0000000F03F0000244000001C40000014409D
:1050D000704B0B9903EBC40353E90223544400299A
:1050E00045D000206C49FBF721FB33462A46FBF7ED
:1050F0003BF85646CDE91001DDE90201FBF79CFCC7
:105100000546FBF77FF902460B46DDE90201FBF796
:105110002BF802460B463035CDE90223DDE910239A
:1051200006F8015BFBF74AFC002863D1DDE90223A6
:1051300000205A49FBF718F8DDE91023FBF73EFC85
:10514000002840F08780A6423FF443AFDDE910011C
:105150000022534BFBF7C0F90022CDE91001DDE935
:1051600002014F4BFBF7B8F9CDE90201C4E7314624
:105170002846FBF7B1F95646CDE910011394DDE955
:105180000201FBF759FC0546FBF73CF902460B46CA
:10519000DDE90201FAF7E8FF02460B46303506F872
:1051A000015BA642CDE902234FF0000224D1DDE9E4
:1051B0001001394BFAF7DAFF02460B46DDE902012E
:1051C000FBF71AFC002845D1DDE910230020324905
:1051D000FAF7CAFF02460B46DDE90201FBF7EEFBD8
:1051E00000283FF4F6AE139E731E139316F8013C8D
:1051F000302BF8D0049F3FE7294BFBF76DF9CDE941
:105200000201BCE70CD1DDE904010022254BFBF7CC
:1052100063F9DDE90223FBF7E5FB002800F05B8181
:1052200000242546219B5646DB4304930027214654
:10523000584600F0B7FB002DDCD02FB1AF4203D0B1
:105240003946584600F0AEFB2946584600F0AAFB06
:10525000D0E7049733461E4613F8012D392A07D1AB
:105260009A45F8D1049A0132049230228AF800203B
:105270001A7801321A70BDE70022094BFBF72CF9AE
:105280000022002304460D46FBF78EFB00283FF466
:10529000BCAEF1E6709200080000E03F0000F03F75
:1052A00000002440000014400B9A002A00F0DB802C
:1052B000209A012A00F3BF80129A002A00F0B780DA
:1052C00003F2334346460A9C099A01211A44584680
:1052D0009844099200F064FC05465EB1099B002BDE
:1052E00008DDB342A8BF3346099AA8EB0308F61AB3
:1052F000D31A09930A9BF3B10B9B002B00F0B780E4
:105300008CB129462246584600F008FD4A4601461F
:105310000546584600F05AFC49460490584600F0AD
:1053200041FB049B99460A9B1A1B04D049465846E8
:1053300000F0F4FC81460121584600F031FC0E9B40
:105340000446002B00F0C9811A460146584600F079
:10535000E5FC209B0446012B00F38F80029B002B71
:1053600040F08780039BC3F31303002B40F083803E
:10537000039B23F000431B0D1B052BB1099B08F178
:1053800001080133099301230A930E9B002B00F0BF
:10539000AA81236904EB8303186900F0B5FBC0F10F
:1053A0002000099B184410F01F0071D0C0F12003A9
:1053B000042B65DD099BC0F11C00034480440644B6
:1053C0000993B8F1000F05DD49464246584600F002
:1053D000FFFC8146099B002B05DD21461A465846F5
:1053E00000F0F6FC04460F9B002B53D021464846A4
:1053F00000F05AFD00284DDA7B1E494604930A222C
:105400000023584600F0F0FA0B9B8146002B00F079
:105410006C81002329460A22584600F0E5FA089BD1
:105420000546002B61DC209B022B3BDC5DE0149BDE
:10543000C3F1360346E7079B5C1E0A9BA342BFBF2E
:105440000A9B0E9AE31AD218A8BF1C1B079BBEBF6B
:105450000A940E920024002BB5BFA8EB0306464623
:105460000023079B30E746460A9C0B9D35E70A9AC6
:105470005CE7002388E7029B86E700230A9388E71E
:105480009FD0099A1C331A4498441E44099298E705
:105490000346F6E7079B0497002B20DC0893209B2C
:1054A000022B1EDD089B002B7FF4BCAE214605229B
:1054B000584600F099FA01460446484600F0F4FCCC
:1054C00000287FF7AFAE3123564606F8013B049B18
:1054D00001330493AAE6079C04972546F3E7079B4C
:1054E00008930B9B002B00F00481002E05DD29465C
:1054F0003246584600F06CFC05460A9B002B5AD0F9
:105500005846696800F00EFA064628B9024640F28D
:10551000EF21834BFFF754BB2A6905F10C010232DE
:1055200092000C30FFF79DFA01223146584600F0F8
:105530004FFC2F4605460AF101030793089B53448D
:105540000B93029B03F001030A93079B2146013B47
:1055500048460293FFF798FA3946089000F1300860
:10556000484600F0A1FC2A4609902146584600F022
:10557000B7FCC268064602BB0146484600F094FCF0
:105580000246314658460C9200F00CFA209B0C9AC9
:10559000079E43EA02010A9B194310D1B8F1390F63
:1055A00029D0099B002B02DD089B03F13108029BE7
:1055B00083F800803BE62846BBE70122E1E7099B30
:1055C000002B04DB20990B430A990B4320D1002ABE
:1055D000EDDD49460122584600F0FAFB214681469E
:1055E00000F062FC002803DCE1D118F0010FDED0EE
:1055F000B8F1390FD8D13923029A137033461E46B9
:1056000016F8012C013B392A52D001321A700EE6ED
:10561000002A07DDB8F1390FEDD0029A08F1010335
:10562000137004E6079B079A03F8018C0B9B9342C7
:1056300028D0494600230A22584600F0D5F9AF4247
:1056400081464FF000034FF00A023946584607D111
:1056500000F0CAF907460546079B0133079374E734
:1056600000F0C2F92946074600230A22584600F0F6
:10567000BBF90546F0E7089B0027002BCCBF1E4670
:105680000126564449460122584600F0A1FB214616
:10569000814600F009FC0028B0DC02D118F0010FAF
:1056A000ACD133461E4613F8012D302AFAD0BEE5A0
:1056B0009A45A4D1049B0133049331238AF8003026
:1056C000B5E5249BDFF85CA01BB10AF10803249A1E
:1056D0001360504617B0BDE8F08F209B012B7FF779
:1056E0003DAE0E9B0A9301205BE6089B002B7FF7E3
:1056F000D6AE564621464846FFF7C6F900F13008B7
:10570000089B06F8018BA6EB0A029342B3DD4946DB
:1057100000230A22584600F067F98146EAE700BFF5
:10572000CF9100085391000838B50546002940D0B4
:1057300051F8043C0C1F002BB8BFE41800F0E6F849
:105740001C4A136833B9636014602846BDE83840CA
:1057500000F0E2B8A34208D9206821188B4201BFAB
:1057600019685B6809182160EDE71A465B680BB1A0
:10577000A342FAD911685018A0420BD12068014405
:10578000501883421160E0D118685B6808441060CB
:105790005360DAE702D90C232B60D6E72068211882
:1057A0008B4201BF19685B6809182160636054600F
:1057B000CBE738BD90420020024B0146186800F04C
:1057C00025B800BF3C00002070B50F4E0C46316874
:1057D000054611B901F0BAFF30602146284601F0B4
:1057E000B5FF431C03D14FF0FF34204670BDC41CED
:1057F00024F00304A042F8D0211A284601F0A6FFA5
:105800000130F2D1EFE700BF8C4200202DE9F843D0
:10581000CD1C25F0030508350C2D38BF0C25002DB7
:10582000064601DBA94204D90C2333600020BDE801
:10583000F883DFF8D48000F069F8D8F800301C460F
:1058400044BB29463046FFF7BFFF431C044658D1EE
:10585000D8F800402746002F43D1002C4BD02368B6
:105860003946304604EB030901F070FF814542D10F
:10587000216830466D1A2946FFF7A6FF01303AD05D
:1058800023682B442360D8F800305A6862BBC8F8FC
:1058900000700FE02268521B20D40B2A17D961191F
:1058A000A342256018BF5960636808BFC8F800109C
:1058B00062514B60304600F02FF804F10B00231DBD
:1058C00020F00700C21A1CBF1B1AA350AFE7626882
:1058D000A3420CBFC8F800205A60EBE72346646877
:1058E000AEE73C467F68B6E71A465B68A342FBD149
:1058F00000235360DEE70C233046336000F00CF8E1
:1059000094E70560D6E700BF904200200148FFF70A
:1059100098B800BF884200200148FFF793B800BF45
:105920008842002070B5C66904460D4676B910203D
:10593000FFF742FF0246E06120B96B21174B184880
:1059400001F01AFFC0E901660660C660E669F36807
:1059500083B1E369DB6853F82500B8B9012101FA86
:1059600005F6721D2046920001F024FF60B1C0E9E7
:1059700001560EE021220421204601F01BFFE369BD
:10598000F060DB68002BE4D1002070BD026843F8B2
:1059900025200023C0E90333F7E700BF609100082A
:1059A000E091000870B5C66905460C4676B910202E
:1059B000FFF702FF0246E86120B98F21084B094832
:1059C00001F0DAFEC0E901660660C6603CB1EB6931
:1059D0006268DB6853F82210216043F8224070BDF2
:1059E00060910008E09100082DE9F04107460C465F
:1059F0001E4600200D6901F1140CDCF80030013066
:105A000099B202FB01611E0C0B0C02FB063389B23A
:105A100001EB034185424FEA13464CF8041BECDCD2
:105A20000EB3A368AB4219DC616838460131FFF759
:105A300079FF804628B90246BA210C4B0C4801F088
:105A40009BFE226904F10C01023292000C30FFF738
:105A500008F821463846FFF7A5FF444604EB8503C6
:105A600001355E6125612046BDE8F081CF910008D7
:105A7000E09100082DE9F843154609221F46083336
:105A80000C4693FBF2F30646012200219A4209DB01
:105A90003046FFF747FF40B90246D321184B19485B
:105AA00001F06AFE52000131F0E7089B092D4361C5
:105AB0004FF00103036116DD04F10909C8462C44C7
:105AC00018F8013B01460A223046303BFFF78CFFB5
:105AD000A045F5D1A5F108044C442D1B6319BB4228
