:020000040800F2
:100000000050002075170008C5150008CD15000820
:10001000D5150008DD150008E515000800000000F2
:10002000000000000000000000000000ED150008C6
:10003000F915000800000000051600081116000858
:10004000BD170008BD170008BD170008BD17000840
:10005000BD170008BD170008BD170008BD17000830
:10006000BD170008BD170008BD170008BD17000820
:10007000BD170008BD170008BD170008BD17000810
:10008000BD170008BD170008BD170008BD17000800
:10009000BD170008BD170008BD170008BD170008F0
:1000A000BD170008BD170008BD170008BD170008E0
:1000B000BD170008BD170008BD170008BD170008D0
:1000C000BD170008BD170008BD170008BD170008C0
:1000D000BD1700085D2F0008912F0008C52F0008EC
:1000E000BD170008BD170008BD170008000000007C
:1000F0000000000000000000000000000000000000
:0C01000000000000000000005FF808F1A3
:1001100010B5054C237833B9044B13B10448AFF341
:1001200000800123237010BD0002002000000000A9
:10013000FC97000808B5034B1BB103490348AFF314
:10014000008008BD0000000004020020FC970008A9
:10015000034613F8012B002AFBD1181A0138704707
:1001600081F0004102E000BF83F0004330B54FEA68
:1001700041044FEA430594EA050F08BF90EA020FD5
:100180001FBF54EA000C55EA020C7FEA645C7FEA68
:10019000655C00F0E2804FEA5454D4EB5555B8BF8B
:1001A0006D420CDD2C4480EA020281EA030382EAFC
:1001B000000083EA010180EA020281EA0303362D8E
:1001C00088BF30BD11F0004F4FEA01314FF4801C61
:1001D0004CEA113102D0404261EB410113F0004F73
:1001E0004FEA03334CEA133302D0524263EB43032A
:1001F00094EA050F00F0A780A4F10104D5F1200EC8
:100200000DDB02FA0EFC22FA05F2801841F1000122
:1002100003FA0EF2801843FA05F359410EE0A5F1F6
:1002200020050EF1200E012A03FA0EFC28BF4CF027
:10023000020C43FA05F3C01851EBE37101F00045DD
:1002400007D54FF0000EDCF1000C7EEB00006EEBEA
:100250000101B1F5801F1BD3B1F5001F0CD3490874
:100260005FEA30004FEA3C0C04F101044FEA4452CB
:1002700012F5800F80F09A80BCF1004F08BF5FEA52
:10028000500C50F1000041EB045141EA050130BD32
:100290005FEA4C0C404141EB0101013C28BFB1F544
:1002A000801FE9D291F0000F04BF01460020B1FA8F
:1002B00081F308BF2033A3F10B03B3F120020CDA62
:1002C0000C3208DD02F1140CC2F10C0201FA0CF040
:1002D00021FA02F10CE002F11402D8BFC2F1200CA5
:1002E00001FA02F120FA0CFCDCBF41EA0C0190405B
:1002F000E41AA2BF01EB0451294330BD6FEA0404A4
:100300001F3C1CDA0C340EDC04F11404C4F120028E
:1003100020FA04F001FA02F340EA030021FA04F3A0
:1003200045EA030130BDC4F10C04C4F1200220FAF7
:1003300002F001FA04F340EA0300294630BD21FA35
:1003400004F0294630BD94F0000F83F4801306BFFB
:1003500081F480110134013D4EE77FEA645C18BFEF
:100360007FEA655C29D094EA050F08BF90EA020F86
:1003700005D054EA000C04BF1946104630BD91EA7E
:10038000030F1EBF0021002030BD5FEA545C05D181
:100390004000494128BF41F0004130BD14F58004C0
:1003A0003CBF01F5801130BD01F0004545F0FE4134
:1003B00041F470014FF0000030BD7FEA645C1ABF69
:1003C000194610467FEA655C1CBF0B46024650EAA0
:1003D000013406BF52EA033591EA030F41F40021CC
:1003E00030BD00BF90F0000F04BF0021704730B552
:1003F0004FF4806404F132044FF000054FF0000127
:1004000050E700BF90F0000F04BF0021704730B5E7
:100410004FF4806404F1320410F0004548BF4042BC
:100420004FF000013EE700BF42004FEAE2014FEA11
:1004300031014FEA02701FBF12F07F4393F07F4FEC
:1004400081F06051704732F07F4208BF704793F0EF
:100450007F4F04BF41F40021704730B54FF4607402
:1004600001F0004521F000411CE700BF50EA010205
:1004700008BF704730B54FF000050AE050EA0102AE
:1004800008BF704730B511F0004502D5404261EB1E
:1004900041014FF4806404F132045FEA915C3FF45F
:1004A000D8AE4FF003025FEADC0C18BF03325FEAFC
:1004B000DC0C18BF033202EBDC02C2F1200300FAAD
:1004C00003FC20FA02F001FA03FE40EA0E0021FAD2
:1004D00002F11444BDE600BF70B54FF0FF0C4CF4C0
:1004E000E06C1CEA11541DBF1CEA135594EA0C0F72
:1004F00095EA0C0F00F0DEF82C4481EA030621EAAD
:100500004C5123EA4C5350EA013518BF52EA0335E7
:1005100041F4801143F4801338D0A0FB02CE4FF099
:100520000005E1FB02E506F00042E0FB03E54FF0C9
:100530000006E1FB03569CF0000F18BF4EF0010EC1
:10054000A4F1FF04B6F5007F64F5407404D25FEABD
:100550004E0E6D4146EB060642EAC62141EA555170
:100560004FEAC52040EA5E504FEACE2EB4F1FD0CB2
:1005700088BFBCF5E06F1ED8BEF1004F08BF5FEA30
:10058000500E50F1000041EB045170BD06F00046E2
:1005900046EA010140EA020081EA0301B4EB5C048F
:1005A000C2BFD4EB0C0541EA045170BD41F4801187
:1005B0004FF0000E013C00F3AB8014F1360FDEBFAC
:1005C000002001F0004170BDC4F10004203C35DA88
:1005D0000C341BDC04F11404C4F1200500FA05F30B
:1005E00020FA04F001FA05F240EA020001F00042AC
:1005F00021F0004110EBD37021FA04F642EB060122
:100600005EEA430E08BF20EAD37070BDC4F10C044B
:10061000C4F1200500FA04F320FA05F001FA04F20F
:1006200040EA020001F0004110EBD37041F10001FB
:100630005EEA430E08BF20EAD37070BDC4F1200506
:1006400000FA05F24EEA020E20FA04F301FA05F26E
:1006500043EA020321FA04F001F0004121FA04F216
:1006600020EA020000EBD3705EEA430E08BF20EAE6
:10067000D37070BD94F0000F0FD101F00046400020
:1006800041EB010111F4801F08BF013CF7D041EAA2
:10069000060195F0000F18BF704703F000465200A6
:1006A00043EB030313F4801F08BF013DF7D043EA77
:1006B0000603704794EA0C0F0CEA135518BF95EA2D
:1006C0000C0F0CD050EA410618BF52EA4306D1D1B4
:1006D00081EA030101F000414FF0000070BD50EAD3
:1006E000410606BF1046194652EA430619D094EA5D
:1006F0000C0F02D150EA013613D195EA0C0F05D147
:1007000052EA03361CBF104619460AD181EA03019A
:1007100001F0004141F0FE4141F470014FF0000052
:1007200070BD41F0FE4141F4780170BD70B54FF0ED
:10073000FF0C4CF4E06C1CEA11541DBF1CEA13556D
:1007400094EA0C0F95EA0C0F00F0A7F8A4EB05044F
:1007500081EA030E52EA03354FEA013100F0888046
:100760004FEA03334FF0805545EA131343EA12630F
:100770004FEA022245EA111545EA10654FEA0026C4
:100780000EF000419D4208BF964244F1FD0404F57D
:10079000407402D25B084FEA3202B61A65EB0305D9
:1007A0005B084FEA32024FF480104FF4002CB6EB96
:1007B000020E75EB030E22BFB61A754640EA0C0016
:1007C0005B084FEA3202B6EB020E75EB030E22BF56
:1007D000B61A754640EA5C005B084FEA3202B6EB97
:1007E000020E75EB030E22BFB61A754640EA9C0056
:1007F0005B084FEA3202B6EB020E75EB030E22BF26
:10080000B61A754640EADC0055EA060E18D04FEAE3
:10081000051545EA16754FEA06164FEAC30343EA83
:1008200052734FEAC2025FEA1C1CC0D111F4801F50
:100830000BD141EA00014FF000004FF0004CB6E749
:1008400011F4801F04BF01430020B4F1FD0C88BFE8
:10085000BCF5E06F3FF6AFAEB5EB030C04BFB6EBF3
:10086000020C5FEA500C50F1000041EB045170BDE6
:100870000EF0004E4EEA113114EB5C04C2BFD4EB13
:100880000C0541EA045170BD41F480114FF0000E97
:10089000013C90E645EA060E8DE60CEA135594EA13
:1008A0000C0F08BF95EA0C0F3FF43BAF94EA0C0F16
:1008B0000AD150EA01347FF434AF95EA0C0F7FF48B
:1008C00025AF104619462CE795EA0C0F06D152EADF
:1008D00003353FF4FDAE1046194622E750EA4106C3
:1008E00018BF52EA43067FF4C5AE50EA41047FF4D4
:1008F0000DAF52EA43057FF4EBAE12E74FF0FF3C39
:1009000006E000BF4FF0010C02E000BF4FF0010C09
:100910004DF804CD4FEA410C7FEA6C5C4FEA430C82
:1009200018BF7FEA6C5C1BD001B050EA410C0CBFD1
:1009300052EA430C91EA030F02BF90EA020F002033
:10094000704710F1000F91EA030F58BF994208BF9A
:1009500090422CBFD8176FEAE37040F00100704757
:100960004FEA410C7FEA6C5C02D150EA013C07D1AE
:100970004FEA430C7FEA6C5CD6D152EA033CD3D0F9
:100980005DF8040B704700BF8446104662468C46F3
:100990001946634600E000BF01B5FFF7B7FF002826
:1009A00048BF10F1000F01BD4DF808EDFFF7F4FF4F
:1009B0000CBF012000205DF808FB00BF4DF808EDDA
:1009C000FFF7EAFF34BF012000205DF808FB00BFFD
:1009D0004DF808EDFFF7E0FF94BF012000205DF81F
:1009E00008FB00BF4DF808EDFFF7CEFF94BF0120D4
:1009F00000205DF808FB00BF4DF808EDFFF7C4FFCD
:100A000034BF012000205DF808FB00BF4FEA410C15
:100A10007FEA6C5C02D150EA013C0AD14FEA430CF8
:100A20007FEA6C5C02D152EA033C02D14FF0000035
:100A300070474FF0010070474FEA410212F5001273
:100A400015D211D56FF47873B3EB625212D94FEA15
:100A5000C12343F0004343EA505311F0004F23FAFF
:100A600002F018BF404270474FF00000704750EA54
:100A7000013005D111F0004008BF6FF00040704711
:100A80004FF00000704700BF4A0011D212F500126B
:100A900011D20DD56FF47873B3EB62520ED44FEAD6
:100AA000C12343F0004343EA505323FA02F0704756
:100AB0004FF00000704750EA013002D14FF0FF3094
:100AC00070474FF0000070474FEA4102B2F1E04337
:100AD00024BFB3F5001CDCF1FE5C0DD901F0004C25
:100AE0004FEAC0024CEA5070B2F1004F40EB830075
:100AF00008BF20F00100704711F0804F21D113F1A1
:100B00003872BCBF01F00040704741F480114FEAD9
:100B10005252C2F11802C2F1200C10FA0CF320FA62
:100B200002F018BF40F001004FEAC1234FEAD3237F
:100B300003FA0CFC40EA0C0023FA02F34FEA4303E9
:100B4000CCE77FEA625307D150EA01331EBF4FF072
:100B5000FE4040F44000704701F0004040F0FE408D
:100B600040F40000704700BF80F0004002E000BF8A
:100B700081F0004142001FBF5FEA410392EA030F88
:100B80007FEA226C7FEA236C6AD04FEA1262D2EBD2
:100B90001363C1BFD218414048404140B8BF5B42D7
:100BA000192B88BF704710F0004F40F4000020F070
:100BB0007F4018BF404211F0004F41F4000121F086
:100BC0007F4118BF494292EA030F3FD0A2F10102D0
:100BD00041FA03FC10EB0C00C3F1200301FA03F10E
:100BE00000F0004302D5494260EB4000B0F5000F31
:100BF00013D3B0F1807F06D340084FEA310102F1F0
:100C00000102FE2A51D2B1F1004F40EBC25008BFA1
:100C100020F0010040EA03007047490040EB00006B
:100C2000013A28BFB0F5000FEDD2B0FA80FCACF16C
:100C3000080CB2EB0C0200FA0CF0AABF00EBC25099
:100C400052421843BCBFD0401843704792F0000F87
:100C500081F4000106BF80F400000132013BB5E7DA
:100C60004FEA41037FEA226C18BF7FEA236C21D050
:100C700092EA030F04D092F0000F08BF08467047B5
:100C800090EA010F1CBF0020704712F07F4F04D183
:100C9000400028BF40F00040704712F100723CBF96
:100CA00000F50000704700F0004343F0FE4040F4C0
:100CB000000070477FEA226216BF08467FEA23637E
:100CC0000146420206BF5FEA412390EA010F40F469
:100CD000800070474FF0000304E000BF10F00043B5
:100CE00048BF40425FEA000C08BF704743F096439C
:100CF00001464FF000001CE050EA010208BF7047B7
:100D00004FF000030AE000BF50EA010208BF70473D
:100D100011F0004302D5404261EB41015FEA010C52
:100D200002BF84460146002043F0B64308BFA3F14A
:100D30008053A3F50003BCFA8CF2083AA3EBC2532C
:100D400010DB01FA02FC634400FA02FCC2F120024B
:100D5000BCF1004F20FA02F243EB020008BF20F082
:100D60000100704702F1200201FA02FCC2F12002E8
:100D700050EA4C0021FA02F243EB020008BF20EADD
:100D8000DC7070474FF0FF0C1CEAD0521EBF1CEA0B
:100D9000D15392EA0C0F93EA0C0F6FD01A4480EAF9
:100DA000010C400218BF5FEA41211ED04FF00063E2
:100DB00043EA501043EA5111A0FB01310CF000400E
:100DC000B1F5000F3EBF490041EAD3715B0040EA34
:100DD000010062F17F02FD2A1DD8B3F1004F40EB04
:100DE000C25008BF20F00100704790F0000F0CF0D7
:100DF000004C08BF49024CEA502040EA51207F3A9B
:100E0000C2BFD2F1FF0340EAC250704740F4000075
:100E10004FF00003013A5DDC12F1190FDCBF00F066
:100E200000407047C2F10002410021FA02F1C2F114
:100E3000200200FA02FC5FEA310040F1000053EAB0
:100E40004C0308BF20EADC70704792F0000F00F0FE
:100E5000004C02BF400010F4000F013AF9D040EA04
:100E60000C0093F0000F01F0004C02BF490011F498
:100E7000000F013BF9D041EA0C018FE70CEAD15396
:100E800092EA0C0F18BF93EA0C0F0AD030F0004C16
:100E900018BF31F0004CD8D180EA010000F00040CA
:100EA000704790F0000F17BF90F0004F084691F088
:100EB000000F91F0004F14D092EA0C0F01D14202C2
:100EC0000FD193EA0C0F03D14B0218BF084608D18B
:100ED00080EA010000F0004040F0FE4040F40000D5
:100EE000704740F0FE4040F4400070474FF0FF0C68
:100EF0001CEAD0521EBF1CEAD15392EA0C0F93EAAF
:100F00000C0F69D0A2EB030280EA010C49024FEA00
:100F1000402037D04FF0805343EA111143EA1013B9
:100F20000CF000408B4238BF5B0042F17D024FF471
:100F3000000C8B4224BF5B1A40EA0C00B3EB510F4C
:100F400024BFA3EB510340EA5C00B3EB910F24BF35
:100F5000A3EB910340EA9C00B3EBD10F24BFA3EBBA
:100F6000D10340EADC001B0118BF5FEA1C1CE0D182
:100F7000FD2A3FF650AF8B4240EBC25008BF20F035
:100F8000010070470CF0004C4CEA50207F32C2BF89
:100F9000D2F1FF0340EAC250704740F400004FF026
:100FA0000003013A37E792F0000F00F0004C02BF57
:100FB000400010F4000F013AF9D040EA0C0093F021
:100FC000000F01F0004C02BF490011F4000F013B7B
:100FD000F9D041EA0C0195E70CEAD15392EA0C0FE3
:100FE00008D142027FF47DAF93EA0C0F7FF470AF1B
:100FF000084676E793EA0C0F04D14B023FF44CAF5E
:1010000008466EE730F0004C18BF31F0004CCAD1F2
:1010100030F000427FF45CAF31F000437FF43CAF2E
:101020005FE700BF4FF0FF3C06E000BF4FF0010C50
:1010300002E000BF4FF0010C4DF804CD4FEA400232
:101040004FEA41037FEA226C18BF7FEA236C11D07C
:1010500001B052EA530C18BF90EA010F58BFB2EB2F
:10106000030088BFC81738BF6FEAE17018BF40F0AF
:10107000010070477FEA226C02D15FEA402C05D163
:101080007FEA236CE4D15FEA412CE1D05DF8040BE8
:10109000704700BF844608466146FFE70FB5FFF77B
:1010A000C9FF002848BF10F1000F0FBD4DF808ED33
:1010B000FFF7F4FF0CBF012000205DF808FB00BF24
:1010C0004DF808EDFFF7EAFF34BF012000205DF87E
:1010D00008FB00BF4DF808EDFFF7E0FF94BF0120CB
:1010E00000205DF808FB00BF4DF808EDFFF7D2FFC8
:1010F00094BF012000205DF808FB00BF4DF808ED0B
:10110000FFF7C8FF34BF012000205DF808FB00BFD7
:101110004FEA40024FEA41037FEA226C02D15FEAC4
:10112000402C08D17FEA236C02D15FEA412C02D126
:101130004FF0000070474FF00100704742000ED2A0
:10114000B2F1FE4F0BD34FF09E03B3EB126209D402
:101150004FEA002343F0004323FA02F070474FF0B8
:101160000000704712F1610F01D1420202D14FF02D
:10117000FF3070474FF00000704700BF38B50022C5
:10118000002304460D46FFF719FC28B920462946DE
:10119000BDE8384000F00AB8204605F1004100F0F3
:1011A00005F8404261EB410138BD00BFD0B50022D7
:1011B0000B4B06460F46FFF78FF9FFF765FC044619
:1011C000FFF710F90022074BFFF786F902460B469E
:1011D00030463946FEF7C8FFFFF756FC2146D0BD22
:1011E0000000F03D0000F04190B58DB004AF00F07C
:1011F000E7FA00F069F94FF4E1320021974801F075
:1012000027FD974A0021974801F094FB02F00CFA61
:101210009549964802F076FFFF23FB610023FB7699
:1012200003230093002300220321914801F0A8FA30
:10123000032300930023002204218D4801F0A0FA2B
:101240007C1DBA1DF91D07F10800BB1C0293FB1C95
:1012500001933B1D0093234601F0ACFC00F008FB1A
:1012600078613B7A1946FB791A46BB79814803F0CD
:10127000A3FF02F069FA02F0F7F84FF4FA6000F009
:1012800001FB02F097FF386102F0A6FFF86002F060
:10129000B7FF0346FB7202F0BFFF0346BB7202F0CA
:1012A000C7FF03467B72FB7A032B21D0FB7A022B0C
:1012B0000DD13869FFF7B8F802460B466E4803F0C7
:1012C0007BFF012203216A4801F0F8FA10E0FB7A63
:1012D000012B05D101220421654801F0EFFA07E056
:1012E0003869FFF7A1F802460B46644803F064FF33
:1012F000634803F061FFBB7A032B08D1F868FFF75E
:1013000093F802460B465F4803F056FF1FE0BB7A96
:10131000022B08D1F868FFF787F802460B465A48B7
:1013200003F04AFF13E0BB7A012B08D1F868FFF7FE
:101330007BF802460B46554803F03EFF07E0F8688D
:10134000FFF772F802460B46514803F035FF7B7AEF
:10135000032B06D0032B10DC012B0AD0022B04D068
:101360000BE04C4803F090FF0BE04B4803F08CFF80
:1013700007E04A4803F088FF03E0494803F084FF90
:1013800000BF3B7A032B0FD1FB79002B0CD1BB792B
:10139000042B09D83B7A1946FB791A46BB79414898
:1013A00003F00AFF02F00CFA3B7A172B33D1FB79DA
:1013B0003B2B30D1BB79042B2DD83B7A1946FB79D6
:1013C0001A46BB79384803F0F7FE3B791946FB789B
:1013D0001A46BB78354803F0EFFE00F049FA0346A1
:1013E0001846FFF777FC034631491846FFF77EFDA4
:1013F00003461846FFF718F802460B462D4803F03F
:10140000DBFE2D4BD3F8F8302B4AD2F8FC201946DE
:101410002A4803F0D1FE3B7A062B0DD1FB79002B35
:101420000AD1BB79042B07D83B7A1946FB791A46B7
:10143000BB79234803F0C0FE3B7A1946FB791A4674
:10144000BB7918461423009303461E4803F0B4FEEC
:1014500040F6B83000F016FAF2E600BF003801405E
:10146000A086010000540040008C394800401C4711
:10147000000C01401898000840980008689800087F
:101480008898000898980008CC980008F4980008FC
:1014900018990008389900085C99000878990008A4
:1014A0009C990008BC990008F4990008209A00084B
:1014B00000BA5B4A3C9A000884050020509A000854
:1014C0006C9A0008989A000880B590B000AF07F1B8
:1014D000180328220021184604F00AF83B1D0022B8
:1014E0001A605A609A60DA601A610123BB614FF496
:1014F0008033FB6100233B620123BB6202237B63D9
:101500004FF48033BB634FF4E013FB6307F1180320
:10151000184600F0BFFA0346002B01D000F019F87E
:101520000F237B600223BB600023FB604FF48063CA
:101530003B6100237B613B1D0221184600F02CFD1E
:101540000346002B01D000F004F800BF4037BD4631
:1015500080BD80B400AF72B600BF00BFFDE70000E1
:1015600080B485B000AF154B9B69144A43F001036A
:101570009361124B9B6903F00103BB60BB680F4B87
:10158000DB690E4A43F08053D3610C4BDB6903F0F7
:1015900080537B607B680A4B5B68FB60FB6823F0D1
:1015A000E063FB60FB6843F00073FB60044AFB6888
:1015B000536000BF1437BD4680BC70470010024026
:1015C0000000014080B400AF00BFFDE780B400AF71
:1015D00000BFFDE780B400AF00BFFDE780B400AFFF
:1015E00000BFFDE780B400AF00BFFDE780B400AFEF
:1015F00000BFBD4680BC704780B400AF00BFBD4691
:1016000080BC704780B400AF00BFBD4680BC70474F
:1016100080B500AF00F01AF900BF80BD80B400AF04
:1016200001231846BD4680BC704780B582B000AF2C
:101630007860396003F0AEFF034616221A604FF05F
:10164000FF3318460837BD4680BD80B582B000AF75
:1016500078604FF0FF317868FFF7E7FF00BFFDE7E4
:1016600080B586B000AFF860B9607A6000237B6116
:101670000AE0AFF300800146BB685A1CBA60CAB2E8
:101680001A707B6901337B617A697B689A42F0DB6F
:101690007B6818461837BD4680BD80B483B000AF64
:1016A00078604FF0FF3318460C37BD4680BC70475A
:1016B00080B483B000AF786039603B684FF400526B
:1016C0005A60002318460C37BD4680BC704780B472
:1016D00083B000AF7860012318460C37BD4680BC4C
:1016E000704780B485B000AFF860B9607A600023BD
:1016F00018461437BD4680BC7047000080B586B0E0
:1017000000AF7860144A154BD31A7B617B693B614B
:10171000134B1B68002B02D1114B124A1A60104B5D
:101720001A687B6813443A699A4207D203F032FF81
:1017300003460C221A604FF0FF3309E0084B1B6888
:10174000FB60074B1A687B681344054A1360FB680B
:1017500018461837BD4680BD005000200004000028
:101760001C020020C844002080B400AF00BFBD466A
:1017700080BC7047FFF7F8FF0B480C490C4A002368
:1017800002E0D458C4500433C4188C42F9D3094A37
:10179000094C002301E013600432A242FBD303F0A2
:1017A000FFFEFFF721FD704700000020000200202F
:1017B00020AB000800020020C8440020FEE7000023
:1017C00080B500AF084B1B68074A43F01003136055
:1017D000032000F02BF90F2000F008F8FFF7C0FEFF
:1017E0000023184680BD00BF0020024080B582B0B3
:1017F00000AF7860124B1A68124B1B7819464FF4F1
:101800007A73B3FBF1F3B2FBF3F3184600F035F94A
:101810000346002B01D001230EE07B680F2B0AD872
:10182000002279684FF0FF3000F00BF9064A7B6820
:101830001360002300E0012318460837BD4680BD31
:1018400000000020080000200400002080B400AF49
:10185000054B1B781A46054B1B681344034A13605B
:1018600000BFBD4680BC7047080000202002002059
:1018700080B400AF024B1B681846BD4680BC704761
:101880002002002080B584B000AF7860FFF7F0FF41
:10189000B8607B68FB60FB68B3F1FF3F05D00A4B83
:1018A0001B781A46FB681344FB6000BFFFF7E0FF9C
:1018B0000246BB68D31AFA689A42F7D800BF00BF45
:1018C0001037BD4680BD00BF0800002080B485B041
:1018D00000AF78607B6803F00703FB600C4BDB68AC
:1018E000BB60BA684FF6FF031340BB60FB681A0287
:1018F000BB68134343F0BF6343F40033BB60044A47
:10190000BB68D36000BF1437BD4680BC704700BFC2
:1019100000ED00E080B400AF044BDB681B0A03F06D
:1019200007031846BD4680BC704700BF00ED00E0CD
:1019300080B483B000AF03463960FB7197F907307C
:10194000002B0ADB3B68DAB20C4997F90730120129
:10195000D2B20B4483F800230AE03B68DAB20849AC
:10196000FB7903F00F03043B1201D2B20B441A7649
:1019700000BF0C37BD4680BC704700BF00E100E0EF
:1019800000ED00E080B489B000AFF860B9607A6023
:10199000FB6803F00703FB61FB69C3F10703042B3A
:1019A00028BF0423BB61FB690433062B02D9FB6902
:1019B000033B00E000237B614FF0FF32BB6902FA7A
:1019C00003F3DA43BB681A407B699A404FF0FF315A
:1019D0007B6901FA03F3D9437B680B401343184634
:1019E0002437BD4680BC704780B582B000AF7860B8
:1019F0007B68013BB3F1807F01D301230FE00A4AEA
:101A00007B68013B53600F214FF0FF30FFF790FFE1
:101A1000054B00229A60044B07221A6000231846E7
:101A20000837BD4680BD00BF10E000E080B582B041
:101A300000AF78607868FFF749FF00BF0837BD4600
:101A400080BD80B586B000AF0346B9607A60FB7395
:101A500000237B61FFF75EFF78617A68B968786977
:101A6000FFF790FF024697F90F3011461846FFF72F
:101A70005FFF00BF1837BD4680BD80B582B000AFA4
:101A800078607868FFF7B0FF034618460837BD4610
:101A900080BD000080B586B000AF78607B68002B09
:101AA00001D1012372E27B681B6803F00103002B64
:101AB00000F08780924B5B6803F00C03042B0CD082
:101AC0008F4B5B6803F00C03082B12D18C4B5B68C7
:101AD00003F48033B3F5803F0BD1894B1B6803F4CB
:101AE0000033002B6CD07B685B68002B68D101232E
:101AF0004CE27B685B68B3F5803F06D1804B1B6886
:101B00007F4A43F4803313602EE07B685B68002BD0
:101B10000CD17B4B1B687A4A23F480331360784BDB
:101B20001B68774A23F4802313601DE07B685B68A1
:101B3000B3F5A02F0CD1724B1B68714A43F480237C
:101B400013606F4B1B686E4A43F4803313600BE0E5
:101B50006B4B1B686A4A23F480331360684B1B6825
:101B6000674A23F4802313607B685B68002B13D0E3
:101B7000FFF77EFE386108E0FFF77AFE02463B6918
:101B8000D31A642B01D9032300E25D4B1B6803F4D5
:101B90000033002BF0D014E0FFF76AFE386108E054
:101BA000FFF766FE02463B69D31A642B01D9032373
:101BB000ECE1534B1B6803F40033002BF0D100E041
:101BC00000BF7B681B6803F00203002B63D04C4B03
:101BD0005B6803F00C03002B0BD0494B5B6803F0F0
:101BE0000C03082B1CD1464B5B6803F48033002B9D
:101BF00016D1434B1B6803F00203002B05D07B6812
:101C00001B69012B01D00123C0E13D4B1B6823F070
:101C1000F8027B685B69DB00394913430B603AE0EB
:101C20007B681B69002B20D0364B01221A60FFF71E
:101C30001FFE386108E0FFF71BFE02463B69D31A1E
:101C4000022B01D90323A1E12D4B1B6803F00203F2
:101C5000002BF0D02A4B1B6823F0F8027B685B69ED
:101C6000DB00274913430B6015E0264B00221A6066
:101C7000FFF7FEFD386108E0FFF7FAFD02463B6919
:101C8000D31A022B01D9032380E11D4B1B6803F0FB
:101C90000203002BF0D17B681B6803F00803002BC4
:101CA0003AD07B689B69002B19D0174B01221A6030
:101CB000FFF7DEFD386108E0FFF7DAFD02463B6919
:101CC000D31A022B01D9032360E10D4B5B6A03F0A9
:101CD0000203002BF0D0012000F0A6FA1CE00A4B12
:101CE00000221A60FFF7C4FD38610FE0FFF7C0FD66
:101CF00002463B69D31A022B08D9032346E100BFF1
:101D0000001002400000424280044242924B5B6A53
:101D100003F00203002BE9D17B681B6803F0040386
:101D2000002B00F0A6800023FB758B4BDB6903F0D2
:101D30008053002B0DD1884BDB69874A43F08053D9
:101D4000D361854BDB6903F08053BB60BB68012323
:101D5000FB75824B1B6803F48073002B18D17F4BFB
:101D60001B687E4A43F480731360FFF781FD38617E
:101D700008E0FFF77DFD02463B69D31A642B01D9C9
:101D8000032303E1754B1B6803F48073002BF0D031
:101D90007B68DB68012B06D16F4B1B6A6E4A43F0F0
:101DA000010313622DE07B68DB68002B0CD16A4BCA
:101DB0001B6A694A23F001031362674B1B6A664A78
:101DC00023F0040313621CE07B68DB68052B0CD155
:101DD000614B1B6A604A43F0040313625E4B1B6A4B
:101DE0005D4A43F0010313620BE05B4B1B6A5A4AE6
:101DF00023F001031362584B1B6A574A23F0040374
:101E000013627B68DB68002B15D0FFF731FD38616A
:101E10000AE0FFF72DFD02463B69D31A41F28832F2
:101E2000934201D90323B1E04B4B1B6A03F0020339
:101E3000002BEED014E0FFF71BFD38610AE0FFF73E
:101E400017FD02463B69D31A41F28832934201D909
:101E500003239BE0404B1B6A03F00203002BEED1EF
:101E6000FB7D012B05D13C4BDB693B4A23F08053C2
:101E7000D3617B68DB69002B00F08780364B5B68A1
:101E800003F00C03082B61D07B68DB69022B46D181
:101E9000334B00221A60FFF7EBFC386108E0FFF7D4
:101EA000E7FC02463B69D31A022B01D903236DE0FC
:101EB000294B1B6803F00073002BF0D17B681B6A71
:101EC000B3F5803F08D1244B5B6823F400327B6874
:101ED0009B68214913434B601F4B5B6823F47412CA
:101EE0007B68196A7B685B6A0B431B4913434B6031
:101EF0001B4B01221A60FFF7BBFC386108E0FFF7BB
:101F0000B7FC02463B69D31A022B01D903233DE0FB
:101F1000114B1B6803F00073002BF0D035E0104B21
:101F200000221A60FFF7A4FC386108E0FFF7A0FC6C
:101F300002463B69D31A022B01D9032326E0064B44
:101F40001B6803F00073002BF0D11EE07B68DB6997
:101F5000012B07D1012319E000100240007000405E
:101F6000600042420B4B5B68FB60FB6803F480320D
:101F70007B681B6A9A4206D1FB6803F470127B6887
:101F80005B6A9A4201D0012300E00023184618370B
:101F9000BD4680BD0010024080B584B000AF7860BF
:101FA00039607B68002B01D10123D0E06A4B1B68AC
:101FB00003F007033A689A4210D9674B1B6823F075
:101FC000070265493B6813430B60634B1B6803F0D2
:101FD00007033A689A4201D00123B8E07B681B6886
:101FE00003F00203002B20D07B681B6803F004037E
:101FF000002B05D0594B5B68584A43F4E0635360AB
:102000007B681B6803F00803002B05D0534B5B680B
:10201000524A43F460535360504B5B6823F0F00224
:102020007B689B684D4913434B607B681B6803F0DA
:102030000103002B40D07B685B68012B07D1474B25
:102040001B6803F40033002B15D101237FE07B686C
:102050005B68022B07D1414B1B6803F00073002B18
:1020600009D1012373E03D4B1B6803F00203002BF1
:1020700001D101236BE0394B5B6823F003027B68DD
:102080005B68364913434B60FFF7F2FBF8600AE0E8
:10209000FFF7EEFB0246FB68D31A41F28832934207
:1020A00001D9032353E02D4B5B6803F00C027B68DE
:1020B0005B689B009A42EBD1274B1B6803F0070338
:1020C0003A689A4210D2244B1B6823F00702224937
:1020D0003B6813430B60204B1B6803F007033A680F
:1020E0009A4201D0012332E07B681B6803F00403AD
:1020F000002B08D0194B5B6823F4E0627B68DB6837
:10210000164913434B607B681B6803F00803002BE0
:1021100009D0124B5B6823F460527B681B69DB00BB
:102120000E4913434B6000F021F802460B4B5B68ED
:102130001B0903F00F030A49CB5C22FA03F3094A97
:102140001360094B1B681846FFF750FB0023184625
:102150001037BD4680BD00BF002002400010024085
:102160009CA60008000000200400002080B487B076
:1021700000AF0023FB600023BB6000237B610023D2
:102180007B6000233B611E4B5B68FB60FB6803F0D8
:102190000C03042B02D0082B03D027E0194B3B6122
:1021A00027E0FB689B0C03F00F03174AD35C7B60AE
:1021B000FB6803F48033002B10D0114B5B685B0C81
:1021C00003F00103114AD35CBB607B680D4A03FB3B
:1021D00002F2BB68B2FBF3F37B6104E07B680C4A5C
:1021E00002FB03F37B617B693B6102E0054B3B61D2
:1021F00000BF3B6918461C37BD4680BC704700BF16
:102200000010024000127A00B4A60008C4A600081C
:1022100000093D0080B400AF024B1B681846BD4664
:1022200080BC70470000002080B485B000AF7860AB
:102230000A4B1B680A4AA2FB03235B0A7A6802FB6B
:1022400003F3FB6000BFFB685A1EFA60002BF9D154
:1022500000BF00BF1437BD4680BC7047000000209F
:10226000D34D621080B584B002AF78600B46FB702E
:102270007B688F4A934205D18E4B9B698D4A43F40C
:10228000007393617B688C4A934205D1894B9B69AB
:10229000884A43F480639361FB78002B07D10023C5
:1022A0000093002300220021844800F069FAFB78A3
:1022B000012B07D1002300930023002201217F4836
:1022C00000F05EFAFB78022B07D100230093002375
:1022D00000220221794800F053FAFB78032B07D142
:1022E00000230093002300220321744800F048FAE1
:1022F000FB78042B07D10023009300230022042144
:102300006E4800F03DFAFB78052B07D100230093BF
:10231000002300220521694800F032FAFB78062BE1
:1023200007D100230093002300220621634800F018
:1023300027FAFB78072B07D1002300930023002204
:1023400007215E4800F01CFAFB78082B07D1002318
:102350000093002300220021594800F011FAFB7875
:10236000092B07D1002300930023002201215448A8
:1023700000F006FA7B685B6843F480727B685A6001
:102380007B689B6843F003027B689A607B689B686C
:1023900043F480127B689A607B689B6823F4006238
:1023A0007B689A607B689B6823F460227B689A60F4
:1023B0007B689B6843F460227B689A607B68DB6A79
:1023C00023F470027B68DA627B68DA6A7B68DA621F
:1023D000FB78092B1FD97B68D968FB78A3F10A0227
:1023E00013465B001344072202FA03F3DB4301EABE
:1023F00003027B68DA607B68D968FB78A3F10A0284
:1024000013465B001344072202FA03F341EA030276
:102410007B68DA601AE07B681969FA7813465B001A
:102420001344072202FA03F3DB4301EA03027B6849
:102430001A617B681969FA7813465B001344072216
:1024400002FA03F341EA03027B681A617B685B6B63
:1024500023F01F027B685A637B685A6BFB781A4330
:102460007B685A637B689B6843F008027B689A60CC
:1024700000BF7B689B6803F00803002BF9D17B68E1
:102480009B6843F004027B689A6000BF7B689B688E
:1024900003F00403002BF9D17B689B6843F48003AD
:1024A00043F001037A68936000BF0837BD4680BDE2
:1024B00000240140001002400028014000080140B3
:1024C000000C014080B483B000AF78600B46FB7015
:1024D000FB78092B1FD97B68D968FB78A3F10A0226
:1024E00013465B001344072202FA03F3DB4301EABD
:1024F00003027B68DA607B68D968FB78A3F10A0283
:1025000013465B001344072202FA03F341EA030275
:102510007B68DA601AE07B681969FA7813465B0019
:102520001344072202FA03F3DB4301EA03027B6848
:102530001A617B681969FA7813465B001344072215
:1025400002FA03F341EA03027B681A617B685B6B62
:1025500023F01F027B685A637B685A6BFB781A432F
:102560007B685A637B689B6843F4800343F00103F4
:102570007A68936000BF7B681B6803F00203002B3E
:10258000F9D07B68DB6C9BB218460C37BD4680BC2B
:10259000704780B588B000AF78600B46FB7013467B
:1025A000BB70BB78002B01D100233CE00023FB6112
:1025B0000023BB6111E0FB7819467868FFF782FFC2
:1025C00000233B6102E03B6901333B613B69B3F5AA
:1025D000FA7FF8DBBB690133BB61BB69022BEADD23
:1025E00000237B6116E0FB7819467868FFF76AFFE5
:1025F00003461A46FB691344FB610023FB6002E0BB
:10260000FB680133FB60FB68B3F57A7FF8DB7B691D
:1026100001337B61BB787A699A42E4DBBB78FA6963
:10262000B2FBF3F39BB218462037BD4680BD0000D5
:1026300080B400AF044BDB681B0A03F007031846A5
:10264000BD4680BC704700BF00ED00E080B483B0A1
:1026500000AF0346FB7197F90730002B0BDBFB79CA
:1026600003F01F02064997F907305B09012000FAC1
:1026700002F241F8232000BF0C37BD4680BC7047F2
:1026800000E100E080B483B000AF03463960FB7125
:1026900097F90730002B0ADB3B68DAB20C4997F94F
:1026A00007301201D2B20B4483F800230AE03B68E2
:1026B000DAB20849FB7903F00F03043B1201D2B2EE
:1026C0000B441A7600BF0C37BD4680BC704700BF74
:1026D00000E100E000ED00E080B489B000AFF860F8
:1026E000B9607A60FB6803F00703FB61FB69C3F123
:1026F0000703042B28BF0423BB61FB690433062BAB
:1027000002D9FB69033B00E000237B614FF0FF32FD
:10271000BB6902FA03F3DA43BB681A407B699A404B
:102720004FF0FF317B6901FA03F3D9437B680B401B
:10273000134318462437BD4680BC704780B586B029
:1027400000AF0346B9607A60FB7300237B61FFF73B
:102750006FFF78617A68B9687869FFF7BDFF024654
:1027600097F90F3011461846FFF78CFF97F90F3095
:102770001846FFF76BFF00BF1837BD4680BD00004D
:1027800080B483B000AF7860084611461A4603460D
:10279000FB700B46BB7013467B707B68414A9342CB
:1027A00005D1414B9B69404A43F0040393617B6828
:1027B0003E4A934205D13C4B9B693B4A43F0080398
:1027C00093617B683A4A934205D1374B9B69364AFD
:1027D00043F0100393617B68364A934205D1324B34
:1027E0009B69314A43F0200393617B68324A9342EC
:1027F00005D12D4B9B692C4A43F040039361FB7834
:10280000072B18D87B681B68FA7892000F2101FA11
:1028100002F2D2431A407B681A607B681B68BA7860
:1028200091003A7C1144FA78920001FA02F21A43BC
:102830007B681A6019E07B685B68FA78083A920056
:102840000F2101FA02F2D2431A407B685A607B687A
:102850005B68BA7891003A7C1144FA78083A9200A1
:1028600001FA02F21A437B685A607B78012B09D186
:102870007B68DB68FA78012101FA02F21A437B686F
:10288000DA6009E07B68DB68FA78012101FA02F27C
:10289000D2431A407B68DA6000BF0C37BD4680BC6B
:1028A000704700BF0008014000100240000C0140CA
:1028B00000100140001401400018014080B483B0B2
:1028C00000AF78600B46FB701346BB70BB78012BE2
:1028D00009D17B681B69FA78012101FA02F21A43D7
:1028E0007B681A6109E07B681B69FA781032012164
:1028F00001FA02F21A437B681A6100BF0C37BD4629
:1029000080BC704780B483B000AF78600B46FB702A
:102910007B689B68FA78012101FA02F21340002BD0
:1029200014BF01230023DBB218460C37BD4680BC20
:102930007047000080B588B002AFF8600B467A603F
:10294000FB72404B1B68404A5268120A02F00702B1
:102950003E498A5CD3407B61FB683D4A934206D185
:10296000394BDB69384A43F40013D36109E0FB6853
:10297000384A934205D1344BDB69334A43F4800330
:10298000D361FB7A002B10D1032300930023032291
:1029900006213148FFF7F4FE0323009300230322AE
:1029A00007212D48FFF7ECFE2CE0FB7A012B16D116
:1029B0002A4B5B68294A43F00203536003230093C8
:1029C0000023032208212448FFF7DAFE03230093A3
:1029D0000023032209212048FFF7D2FE12E0FB7AF0
:1029E000022B0FD103230093002303220A211A484C
:1029F000FFF7C6FE03230093002303220B21164892
:102A0000FFF7BEFE7B69164AA2FB03239A0CFB6804
:102A10005A607B685B007A69B2FBF3F2FB68DA61AB
:102A20007B690F4AA2FB03239B0C5A1CFB681A62AA
:102A3000FB681B6843F00102FB681A6000BF18378F
:102A4000BD4680BD0000002000100240ACA600087A
:102A50000054004000580040000C014000000140BC
:102A600083DE1B4380B487B000AFF8607B600B4609
:102A7000FB721346BB72FB681B6843F4A062FB68E1
:102A80001A6000BFFB685B6903F00103002BF9D0FB
:102A9000FB7A5A00FB681A6100BFFB685B6903F0B0
:102AA0000203002B0CBF01230023DAB2FB689B69F1
:102AB00003F00203002B0CBF01230023DBB21343FE
:102AC000DBB2002BE9D1BA7AFB681A6100BFFB6860
:102AD0005B6903F08003002BF9D0FB681B6843F4AB
:102AE0008072FB681A6000BFFB685B6903F001033A
:102AF000002BF9D0FB7A5B0043F001031A46FB6818
:102B00001A6100BFFB685B6903F00203002B0CBF76
:102B100001230023DAB2FB689B6903F00203002B58
:102B20000CBF01230023DBB21343DBB2002BE9D13E
:102B300000237B6110E000BFFB685B6903F040038A
:102B4000002BF9D0FB6819697B697A681344CAB213
:102B50001A707B6901337B6197F820307A699A4259
:102B6000E9DBFB681B6823F48062FB681A60FB6882
:102B70001B6843F40072FB681A6000BF1C37BD4637
:102B800080BC704780B483B000AF0346FB71FB7913
:102B90001B09DBB21A46920013445B00DAB2FB79E0
:102BA00003F00F03DBB21344DBB218460C37BD460B
:102BB00080BC704780B588B002AFF860B9607A60B9
:102BC0003B6007F1100307220092002268211F4892
:102BD000FFF748FFBB7C1846FFF7D4FF03461A46B1
:102BE000FB681A707B7C1846FFF7CCFF03461A4639
:102BF000BB681A703B7C1846FFF7C4FF03461A46B1
:102C00007B681A70FB7C1846FFF7BCFF03461A4628
:102C10003B681A703B7D1846FFF7B4FF03461A461F
:102C20003B6A1A707B7D1846FFF7ACFF03461A46D5
:102C30007B6A1A70BB7D1846FFF7A4FF03461A464D
:102C4000BB6A1A7000BF1837BD4680BD00540040F3
:102C5000B0B58AB002AFF8600B467A60FB72002311
:102C6000BB770023BB61874B9B69864A43F0010316
:102C700093614FF000037B6100237B8200233B8242
:102C8000FB68814A934216D1FFF7C4FA02467D4B96
:102C90005B681B0A03F038037C49CB5C42FA03F300
:102CA000BB61784B9B69774A43F48043936125234A
:102CB000FB770123BB77FB68754A934216D1FFF778
:102CC000A9FA02466F4B5B681B0A03F007036F49C2
:102CD000CB5C42FA03F3BB616A4BDB69694A43F49C
:102CE0000033D3612623FB770223BB77FB68694A55
:102CF000934216D1FFF78EFA0246624B5B681B0ABD
:102D000003F007036149CB5C42FA03F3BB615D4BFF
:102D1000DB695C4A43F48023D3612723FB770323D9
:102D2000BB77FB7A002B0FD10323009300230222F1
:102D300009215948FFF724FD0023009300230122B5
:102D40000A215548FFF71CFDFB7A012B15D1534B87
:102D50005B68524A43F0040353600323009300234B
:102D6000022206214E48FFF70BFD002300930023AB
:102D7000012207214A48FFF703FDFB7A022B0FD1FE
:102D8000032300930023022202214348FFF7F8FCAB
:102D9000002300930023012203213F48FFF7F0FCAA
:102DA000FB7A032B0FD103230093002302220A2175
:102DB0003B48FFF7E5FC00230093002301220B2191
:102DC0003748FFF7DDFCB869FDF70CFB04460D46FC
:102DD0007868FDF707FB4FF00002324BFDF77CFBF4
:102DE00002460B4620462946FDF7A0FC02460B464C
:102DF00010461946FDF768FE03467B617869FEF7C9
:102E00009DF903467B827B8A1846FDF767FF0346E0
:102E100019467869FDF7ACFE03464FF0834118462A
:102E2000FDF7B0FF03461846FEF788F903463B82DC
:102E30007B8A1A013B8A13441A46FB689A60FB6836
:102E4000DB6843F00402FB68DA60FB68DB6843F090
:102E50000802FB68DA60FB68DB6843F40052FB6839
:102E6000DA60FB68DB6843F02002FB68DA60BA7F57
:102E700097F91F3001211846FFF760FC00BF20378B
:102E8000BD46B0BD0010024000380140ACA60008AD
:102E9000004400400048004000080140000001409C
:102EA000000C01400000304080B483B000AF786077
:102EB0000B46FB707B68DA887B689B889A421BD242
:102EC0007B681B687A68D2881344FA781A707B682A
:102ED000DB8801339AB27B68DA807B685B890133D7
:102EE0009AB27B685A817B68DA887B689B889A42B1
:102EF00002D17B680022DA8000BF0C37BD4680BC5F
:102F0000704780B483B000AF78600B46FB7000BFA1
:102F10007B681B6803F08003002BF9D0FA787B688C
:102F20005A6000BF0C37BD4680BC704780B582B088
:102F300000AF7860396007E03B685A1C3A601B7844
:102F400019467868FFF7DDFF3B681B78002BF3D14B
:102F500000BF00BF0837BD4680BD000080B582B00D
:102F600000AF094B1B6803F02003002B07D0064B72
:102F70005B68FB71FB7919460448FFF795FF00BFBA
:102F80000837BD4680BD00BF003801400C0000205E
:102F900080B582B000AF094B1B6803F02003002B03
:102FA00007D0064B5B68FB71FB7919460448FFF7B5
:102FB0007BFF00BF0837BD4680BD00BF0044004016
:102FC0001800002080B582B000AF094B1B6803F0E9
:102FD0002003002B07D0064B5B68FB71FB79194679
:102FE0000448FFF761FF00BF0837BD4680BD00BF42
:102FF000004800402400002080B586B000AFF86093
:10300000B9607A6000237B610AE07B69BA68134487
:103010001B7819460748FFF774FF7B6901337B6112
:103020007A697B689A42F0DB7B6818461837BD46A0
:1030300080BD00BF0038014080B483B000AF78602D
:103040007B6800221A707B6800225A707B6802330A
:10305000204A1068186092889A807B6801229A74CE
:103060007B6808225A617B681B4A9A617B68082248
:103070009A837B68194A5A637B68002283F8382058
:103080007B683933164A106818607B684133154AEB
:10309000106818607B68144A9A657B68134ADA6581
:1030A0007B68134A1A667B68124A9A667B68124AE2
:1030B000DA667B684FF000021A677B680F4A5A672E
:1030C0007B68002283F8642000BF0C37BD4680BCBB
:1030D000704700BFC49A00080008014000401C4629
:1030E000CC9A0008D09A0008000020410000C84196
:1030F00000004842F0A786BE3D0AD73E0000FA43D2
:1031000080B483B000AF78607B6801221A707B685E
:1031100001225A707B680233204A10681860928836
:103120009A807B6801229A747B6809225A617B68C5
:103130001B4A9A617B6810229A837B68194A5A63FA
:103140007B68012283F838207B683933164A10687F
:1031500018607B684133154A106818607B68144A10
:103160009A657B68134ADA657B68134A1A667B683E
:10317000124A9A667B68124ADA667B684FF0000250
:103180001A677B680F4A5A677B68002283F86420BD
:1031900000BF0C37BD4680BC704700BFD49A000802
:1031A0000008014000401C46DC9A0008D09A000844
:1031B0000000A040000020410000A041000080BEAF
:1031C0008FC275BE0000C84290B583B000AF786072
:1031D0007B685B69184600F071F902467B681A62E9
:1031E0007B689A697B689B8B1946104600F08EF9C4
:1031F00003461A467B6883F82C20FEF739FB02460B
:103200007B681A637B681B6A3F491846FDF776FFA7
:103210000346002B59D07B681B6A184600F088F9DA
:1032200002467B685A627B685A6A7B685B6B194608
:103230001046FDF75BFE03461A467B689A627B6880
:10324000986A7B68996E7B68DB6E1A4600F098F985
:1032500002467B68DA647B68DA6C7B681B6F194610
:103260001046FDF72DFF0346002B03D07B681A6F35
:103270007B68DA647B68DA6C7B685B6F19461046A2
:10328000FDF73CFF0346002B03D07B685A6F7B6839
:10329000DA647B681B6D1D491846FDF773FD034614
:1032A0001C467B68DB6C18491846FDF76BFD03462E
:1032B00019462046FDF75EFC03461A467B681A65F0
:1032C0007B681A6D7B685A650FE07B684FF00002DF
:1032D0005A627B684FF000029A627B681A6F7B68C3
:1032E000DA647B681A6F7B681A65786800F010F8FA
:1032F00003461A467B68DA74786800F043F800BF2A
:103300000C37BD4690BD00BFCDCC4C3ECDCC4C3F24
:1033100080B582B000AF78607B681B6A1749184699
:10332000FDF7CEFE0346002B08D17B681B6A1449CB
:103330001846FDF7E3FE0346002B01D0002318E0FA
:103340007B68DA6C7B681B6F19461046FDF7B8FE88
:103350000346002B0AD17B68DA6C7B685B6F1946E9
:103360001046FDF7CBFE0346002B01D0002300E002
:10337000012318460837BD4680BD00BFCDCC4C3E6A
:103380009A99994080B582B000AF78607B68D86C1C
:103390007B68996D7B68DA6D7B681B6E00F01CF9A9
:1033A00003461A467B6883F8642000BF0837BD4691
:1033B00080BD0000F0B58BB006AF204B0293204BD0
:1033C0000193204B0093204B204A21492148FFF7CD
:1033D000F1FB204B1B7819461D4B1B781A461B4BE3
:1033E0001B783846019300920B461B4A102101F0CE
:1033F00053FF1A4B1B781E4600F0DCFE03461846AE
:10340000FDF712F804460D4600F0E6FE03461846A6
:10341000FDF70AF802460B46CDE90423CDE9024543
:103420003B46009333460E4A4FF480710D4801F03D
:1034300033FF00BF1437BD46F0BD00BF8305002039
:103440008205002081050020800500207F050020E6
:103450007E0500207D050020EC9B00087C050020F7
:10346000FC9B00085003002080B500AFFFF7A2FFCF
:103470000C4B0D4A4FF496710C4801F00DFF0B49AF
:103480000B48FFF753FD0B4B1B7819460A4801F018
:1034900093FE084B1B780133DAB2064B1A7000BF5B
:1034A00080BD00BF50030020289C0008500400206D
:1034B000003801407C050020389C000880B584B0AD
:1034C00000AF78607B68DBB20A2219460C48FFF730
:1034D00060F803461846FDF7FDFB0346FB6009490B
:1034E000F868FDF74FFC034607491846FDF7FEFC58
:1034F0000346BB60BB6818461037BD4680BD00BFA1
:10350000002401403333534000F07F4580B582B042
:1035100000AF78600B467B807B88DBB21946786809
:10352000FFF7F0F9034618460837BD4680BD000096
:1035300080B582B000AF78600E497868FDF7CAFDAB
:103540000346002B02D04FF000030EE079680A48D2
:10355000FDF70EFB034679681846FDF7C7FC0346E6
:1035600006491846FDF70EFC034618460837BD46C7
:1035700080BD00BFCDCCCC3D0000A04000401C462B
:1035800080B588B000AFF860B9607A604FF0000194
:10359000F868FDF79FFD0346002B02D04FF00003B3
:1035A00014E0F86805F0DAFAF8617968F869FDF76F
:1035B000DFFA0346B9681846FDF798FC0346BB617D
:1035C000B969044805F0F2FA78617B69184620373A
:1035D000BD4680BD0000204180B584B000AFF860DA
:1035E000B9607A603B603968F868FDF77DFD034695
:1035F000002B01D0032312E07968F868FDF774FD11
:103600000346002B01D0022309E0B968F868FDF7F2
:103610006BFD0346002B01D0012300E00023184678
:103620001037BD4680BD000080B584B002AF384879
:1036300001F02AFE4FF482720021364801F058FF53
:1036400043F6F0420021344801F052FF3148FFF7C1
:10365000F3FC3248FFF754FD0023009301230022BE
:1036600008212F48FFF78CF8002300930123002244
:1036700010212B48FFF784F808212A48FEF7F2FDB5
:1036800009212848FEF7EEFD224B022283F8F020A4
:10369000FEF7EEF803461F4AC2F8F4301D4B9B7C40
:1036A000002B01D0204B00E0204B1946204801F0B0
:1036B00083FD184B93F88A30002B01D01A4B00E0A1
:1036C0001A4B19461B4801F077FD124B93F8F03066
:1036D0001946194801F070FD184801F0D5FD1E2368
:1036E0007B600AE07968164801F066FD4FF47A7055
:1036F000FEF7C8F87B68013B7B607B68002BF1DC40
:10370000104801F0C1FD00BF0837BD4680BD00BFB5
:10371000589C00088405002088060020FC05002035
:103720000008014000240140709C0008749C0008BF
:103730007C9C0008989C0008B49C0008D09C000861
:10374000EC9C0008009D000880B582B000AFFEF739
:103750008FF87860174B9B7C002B02D01548FFF741
:1037600033FD144B93F88A30002B02D01248FFF738
:103770002BFD00F099FD00F067FD0E4BD3F8F830FB
:1037800001330C4AC2F8F8300A4A7B68C2F8F430B8
:103790007868FDF79FFA034608491846FDF7A6FB2F
:1037A00003461A46034BC3F8002100BF0837BD4645
:1037B00080BD00BF84050020FC05002000606A4732
:1037C0002DE9F0439DB008AF844801F05DFD8448C9
:1037D00001F05AFD00F038FA0346002B03D181486E
:1037E00001F052FD04E2804801F04EFD7F4801F0F7
:1037F0004BFD4FF00003FB647D4BBB644FF00003B7
:103800007B644FF000033B64794BFB634FF0000394
:10381000BB6300237B634FF49673FB6200233B631F
:1038200098E0FFF791FF734B5B6AFB60714BD3F835
:103830009C30BB606F4B1B6A1946F86800F0F0FAC9
:103840000346FB716B4BD3F898301946B86800F00B
:10385000E7FA0346BB71FB79002B35D0BB79002B0F
:1038600032D0F968F86CFDF785F90346FB64B96C52
:10387000F868FDF725FC0346002B01D0FB68BB640C
:10388000796CF868FDF73AFC0346002B01D0FB6821
:103890007B64B968386CFDF76DF903463B64F96BDE
:1038A000B868FDF70DFC0346002B01D0BB68FB6335
:1038B000B96BB868FDF722FC0346002B01D0BB684A
:1038C000BB637B6B01337B633A6B4B4B83FB021314
:1038D00013441911D317C91A0B461B015B1A5B005D
:1038E000D11A00292FD1386BFDF7F8F90446F86A90
:1038F000FDF7F4F9034619462046FDF7F7FA0346AB
:103900003E491846FDF73EFA03463B603868FCF72F
:103910008BFD804689463B6B5E1CF868FCF784FD96
:1039200004460D46B868FCF77FFD02460B46796BEE
:103930000691CDE90423CDE90245009642464B4667
:103940002F4801F039FC4FF47A70FDF79BFF3B6B79
:1039500001333B633A6BFB6A9A42FFF662AF786BC6
:10396000FDF7BCF90446F86AFDF7B8F903462549A6
:103970001846FDF707FA034619462046FDF7A0FB57
:103980000346002B4AD0786BFDF7A8F90446F86A85
:10399000FDF7A4F9034619462046FDF7A7FA0346AA
:1039A00016491846FDF7EEF903461846FCF73CFDAC
:1039B00002460B46CDE90023FA6A796B124801F002
:1039C000FBFB124801F060FC114801F05DFC11485E
:1039D00001F05AFC104801F057FC09E1089F00086B
:1039E000309F0008749F0008A49F0008D09F000823
:1039F000F023744984050020898888880000C84223
:103A0000F09F0008CDCC4C3F34A0000864A0000813
:103A100074A0000894A00008B0A00008786BFDF71F
:103A20005DF903461946F86CFDF760FA0346BB6280
:103A3000786BFDF753F903461946386CFDF756FAD3
:103A400003467B62B96C786CFDF792F803463B62E3
:103A5000F96BB86BFDF78CF80346FB61B96A386AFD
:103A6000FDF744FA034664491846FDF78BF903460F
:103A7000BB61796AF869FDF739FA03465E49184671
:103A8000FDF780F903467B615C4801F0FDFB786B34
:103A9000FDF724F90446F86AFDF720F903461946B4
:103AA0002046FDF723FA034653491846FDF76AF905
:103AB00003461846FCF7B8FC02460B46CDE9002346
:103AC000FA6A796B4E4801F077FB4E4801F0DCFB57
:103AD000B86AFCF7A9FC02460B464B4801F06CFBA8
:103AE000B86CFCF7A1FC04460D46786CFCF79CFC16
:103AF00002460B46CDE9002322462B46434801F0FF
:103B00005BFBB869FCF790FC02460B46404801F0AD
:103B100053FB404801F0B8FB786AFCF785FC02468D
:103B20000B46394801F048FBF86BFCF77DFC044676
:103B30000D46B86BFCF778FC02460B46CDE9002336
:103B400022462B46314801F037FB7869FCF76CFCC4
:103B500002460B462E4801F02FFB2F4AB969B86A7E
:103B600000F090F90346FB742C4A7969786A00F0FA
:103B700089F90346BB74FB7C002B29D0BB7C002B4E
:103B800026D0274ABB6A5363254A7B6AC2F8AC3009
:103B9000244801F079FB244801F076FBB86AFCF771
:103BA00043FC02460B46214801F006FB786AFCF70D
:103BB0003BFC02460B461E4801F0FEFA796AB86AE1
:103BC00000F084FA1B4801F05FFB00F047FA0CE0BC
:103BD000194801F059FB194801F056FB104B184ADF
:103BE0005A630F4B164AC3F8AC20164801F04CFB41
:103BF0005437BD46BDE8F0830000C842CCA00008A1
:103C0000ECA0000820A1000838A1000854A1000879
:103C100078A1000890A10008A8A10008B0A10008A0
:103C200084050020B8A10008D8A10008F0A1000870
:103C300004A2000818A2000834A2000850A200083C
:103C400000401C4670A2000880B59AB000AF6548DD
:103C500001F01AFB00237B6619E0FFF775FD624B4C
:103C60005A6A7B6E9B0068333B4443F83C2C5E4BA6
:103C7000D3F89C207B6E9B0068333B4443F8642C54
:103C80004FF4FA60FDF7FEFD7B6E01337B667B6EC1
:103C9000092BE2DD07F12C030A21184600F04CF94C
:103CA00038663B1D0A21184600F046F9F865386E63
:103CB000FCF7BAFB02460B464C4801F07DFAF86D62
:103CC000FCF7B2FB02460B46494801F075FA07F1D2
:103CD0002C030A21184600F097F9B8653B1D0A210C
:103CE000184600F091F97865B86DFCF79DFB024627
:103CF0000B46404801F060FA786DFCF795FB0246F0
:103D00000B463D4801F058FA3C49386EFDF7D8F9AA
:103D10000346002B27D03949F86DFDF7D1F903464A
:103D2000002B20D03649B86DFDF7E8F90346002B8B
:103D300019D03449B86DFDF7C3F90346002B12D0F2
:103D40002F49786DFDF7DAF90346002B0BD02D498A
:103D5000786DFDF7B5F90346002B04D02A4801F031
:103D600093FA012339E0294801F08EFA2349386E8D
:103D7000FDF7BAF90346002B02D0254801F084FA7A
:103D80001E49F86DFDF7B0F90346002B02D021481B
:103D900001F07AFA1A49B86DFDF79CF90346002B39
:103DA00006D11849B86DFDF79FF90346002B02D0E4
:103DB000194801F069FA1249786DFDF78BF903464D
:103DC000002B06D10F49786DFDF78EF90346002BC5
:103DD00002D0124801F058FA002318466837BD4651
:103DE00080BD00BF94A2000884050020B8A200088E
:103DF000E0A2000808A3000830A30008000020414A
:103E000000401C460050434858A3000874A3000813
:103E100094A30008ACA30008C4A30008E4A300080E
:103E200080B582B000AF7860396012493868FDF71C
:103E300047F90346002B06D10F493868FDF75EF9B4
:103E40000346002B01D0002310E00C497868FDF7F1
:103E500037F90346002B06D109497868FDF74EF97A
:103E60000346002B01D0002300E001231846083749
:103E7000BD4680BDCDCC4C3E9A9999400000FA4594
:103E8000007C924880B584B000AFF860B9607A6079
:103E90007968214801F090F92049F868FDF710F998
:103EA0000346002B0AD0F868FCF7BEFA02460B4620
:103EB00079681B4801F080F9002328E01949F86867
:103EC000FDF71CF90346002B0AD0F868FCF7ACFAA2
:103ED00002460B467968144801F06EF9002316E09B
:103EE0001249B868FDF70AF90346002B0AD0B868F2
:103EF000FCF79AFA02460B4679680D4801F05CF926
:103F0000002304E079680B4801F056F901231846B4
:103F10001037BD4680BD00BF04A400080000FA456C
:103F20001CA400080050434840A400080000704151
:103F300064A400088CA4000880B588B000AF786045
:103F400039604FF00003FB614FF00003BB610023B9
:103F50007B610DE07B699B007A6813441B681946FE
:103F6000F869FCF707FE0346FB617B6901337B615F
:103F70007A693B689A42EDDB3868FCF7AFFE03468E
:103F80001946F869FCF7B2FF0346FB6000233B616A
:103F900018E03B699B007A6813441B68F96818466F
:103FA000FCF7E6FD03464FF08041184604F0FEFDA5
:103FB00003461946B869FCF7DDFD0346BB613B6962
:103FC00001333B613A693B689A42E2DB3868FCF7AF
:103FD00085FE03461946B869FCF788FF0346BB61B6
:103FE000B86904F030FEB860F968B868FCF77EFF85
:103FF000034604491846FCF7C5FE03461846203719
:10400000BD4680BD0000C84280B584B000AF786076
:1040100039604FF00003FB600023BB600DE0BB681C
:104020009B007A6813441B681946F868FCF7A2FDE8
:104030000346FB60BB680133BB60BA683B689A42C9
:10404000EDDB3868FCF74AFE03461946F868FCF7D2
:104050004DFF034618461037BD4680BDF0B587B00A
:1040600002AF184801F010F90023FB6022E0FFF7CF
:104070006BFB00F09FF8B86000F0AEF87860FB686A
:104080005E1CB868FCF7D0F904460D467868FCF76A
:10409000CBF902460B46CDE9002322462B4631469A
:1040A000094801F089F840F6B830FDF7EBFBFB68F2
:1040B0000133FB60FB68042BD9DD00BF00BF143760
:1040C000BD46F0BDA0A40008BCA40008B0B584B0F3
:1040D00002AF786039607868FCF7A6F904460D46AF
:1040E0003868FCF7A1F902460B46CDE900232246C9
:1040F0002B46034801F060F800BF0837BD46B0BD4D
:10410000E4A4000880B582B000AF7860396021482F
:1041100001F0BAF820497868FCF7F0FF0346002B5D
:1041200012D01E497868FCF7CBFF0346002B0BD05A
:104130001B4A7B6853637868FCF776F902460B46A6
:10414000184801F039F802E0174801F09DF81249CB
:104150003868FCF7D3FF0346002B13D00F493868AB
:10416000FCF7AEFF0346002B0CD00D4A3B68C2F8AB
:10417000AC303868FCF758F902460B460B4801F0A2
:104180001BF803E00A4801F07FF800BF00BF0837C2
:10419000BD4680BD10A6000800409C45007C9248AA
:1041A000840500202CA6000848A6000864A6000884
:1041B00080A6000880B400AF064BDB7C002B02D049
:1041C000044BDB6C01E04FF000031846BD4680BC99
:1041D000704700BF8405002080B400AF074B93F800
:1041E0008B30002B03D0054BD3F8C43001E04FF0E7
:1041F00000031846BD4680BC704700BF8405002000
:1042000080B400AF034B93F864301846BD4680BCC1
:10421000704700BF8405002080B400AF034B93F8C3
:10422000DC301846BD4680BC704700BF84050020C6
:1042300080B400AF034B93F8F2301846BD4680BC03
:10424000704700BF8405002080B500AF124B1B787B
:104250001946124A0B469B010B449B001344104A1B
:10426000184611464FF482731A4601F0CEF90A4BF4
:104270001B785A1C0B4B83FB021313445911D317A1
:10428000C91A0B461B015B1A9B00D11ACAB2024B1A
:104290001A7000BF80BD00BF784300208806002050
:1042A000840500208988888880B483B000AF00230B
:1042B000FB710023BB71284B9B7C002B10D0264B3D
:1042C000DB7C002B0CD0FB790133FB71224B93F884
:1042D0006430BA799A4203D21F4B93F86430BB71B1
:1042E0001D4B93F88A30002B11D01B4B93F88B3069
:1042F000002B0CD0FB790133FB71174B93F8DC30AA
:10430000BA799A4203D2144B93F8DC30BB71FB7933
:10431000022B04D1104B032283F8F12012E0FB7929
:10432000012B04D10C4B022283F8F1200AE00A4B46
:10433000002283F8F120084BD3F8FC300133064A01
:10434000C2F8FC30044ABB7982F8F23000BF0C3767
:10435000BD4680BC704700BF84050020002B2DE9BE
:10436000F0471D46BBBF03F100431D4600232D232C
:1043700088B01446B8BF1446129A109E1370149B4E
:10438000DDF84CA023F02008B8F1460F05D0B8F1B5
:10439000450F00D10136022300E0032307AA04924F
:1043A00006AACDE902A2CDE9003622462B4601F04D
:1043B000C7F9B8F1470F074619D1119BDB070ED596
:1043C00000EB06090022002320462946FCF7ECFA00
:1043D00008B1CDF81C903022079B4B451ED33846C0
:1043E000079B159ADB1B136008B0BDE8F087B8F196
:1043F000460F00EB0609E5D10378302B0AD10022E5
:10440000002320462946FCF7CFFA18B9C6F1010669
:10441000CAF80060DAF800309944D3E7591C0791D4
:104420001A70D9E7F7B50029B6BF2D232B234942CF
:1044300009290270437029DD0DF107031D460A2783
:10444000B1FBF7F61A4607FB1614303402F8014C9C
:104450000C46632C314603F1FF33F1DC3031941EFE
:1044600003F8011C2346411CAB420AD30DF109039A
:104470009B1AAC4288BF002302330344181A03B0CE
:10448000F0BD13F8016B01F8016FEDE73023303117
:104490008370C170031DF1E72DE9F04F91B00C4618
:1044A000DDF8688016461F46054601F029F80368C6
:1044B00018460893FBF74CFE00230E93D8F8003003
:1044C0000990073323F0070303F1080294F818A0BA
:1044D000D4F800B0C8F80020D3E9008929F00043DF
:1044E0000B93CDF828804FF0FF32DDE90A01C4E9D3
:1044F00012899C4BFCF78AFA70BBDDE90A014FF088
:10450000FF32984BFCF764FA30BB00220023404690
:104510004946FCF753FA10B12D2384F84330924AF0
:10452000924BBAF1470F94BF9046984603234FF041
:10453000000923612BF004032360334621462846FB
:1045400000970FAA00F0D4F9013040F090804FF0AE
:10455000FF3011B0BDE8F08F42464B464046494619
:10456000FCF754FA48B14B46002BB8BF2D23804AC4
:10457000B8BF84F843307F4BD3E763680AF0DF01AC
:104580005A1C3FD10623636000224BF480632360F2
:1045900006920EAACDE904A20DAA03920DF13302F0
:1045A000CDE9013263684246009328464B460A91A2
:1045B000FFF7D4FE0A99804647290D9928D1C81CD7
:1045C00002DB6368994240DDAAF1020A5FFA8AFAC7
:1045D0005246013904F150000D91FFF723FF0E9A66
:1045E00081461318012A236102DC2268D20701D513
:1045F000013323619DF83330002B9ED02D2384F8A6
:1046000043309AE74729BFD1002BBDD10123BAE738
:10461000BAF1650FDCD9BAF1660F18D100296368C9
:104620000BDD216113B92268D00702D501330B4499
:1046300023614FF00009A165DCE713B92268D207B6
:1046400001D50233F4E70123F2E74FF0670A0E9B2E
:10465000994205DB23682161D807EAD54B1CE7E7BF
:104660000029CCBF0122C1F102021344E0E7236814
:104670005A0507D42369424631462846B8470130D7
:104680002BD164E7BAF1650F40F2DC80D4E9120166
:1046900000220023FCF788F9002833D0012331469B
:1046A0002846354AB84701303FF451AFDDE90D38AF
:1046B000434502DB2368D8070FD5DDE908233146DF
:1046C0002846B84701303FF442AF4FF0000908F1E7
:1046D000FF3804F11A0AC84509DC23689B0700F17A
:1046E0000281E0680F9B9842B8BF184631E701236A
:1046F000524631462846B84701303FF428AF09F109
:104700000109E8E70D9B002B38DC012331462846E0
:10471000194AB84701303FF41AAFDDE90D3959EABB
:10472000030302D12368D907D7D5DDE90823314631
:104730002846B84701303FF40AAF4FF0000A04F1B1
:104740001A0B0D9B5B42534501DC4B4693E701235B
:104750005A4631462846B84701303FF4F8AE0AF1D0
:10476000010AEEE7FFFFEF7FC6A60008CAA6000811
:10477000CEA60008D2A60008D6A60008A36DDDF8D4
:1047800038A05345A8BF5346002B994636DC4FF05E
:10479000000B29EAE97904F11A02A36D0A93A3EB4D
:1047A00009035B4531DC0D9B9A453ADC2368DA0747
:1047B00037D40D9BAAEB03090A9BAAEB0303994587
:1047C000A8BF9946B9F1000F33DC4FF0000829EA81
:1047D000E97904F11A0B0D9BAAEB0303A3EB090380
:1047E00043457FF77AAF01235A4631462846B847FA
:1047F00001303FF4ACAE08F10108ECE74246314627
:104800002846B8470130C2D1A1E6012331462846E7
:104810000A92B84701303FF49AAE0A9A0BF1010BA5
:10482000BBE73146DDE908232846B8470130C0D14F
:104830008DE60A9A4B46314628464244B847013035
:10484000C3D184E6DDF838A0BAF1010F01DCDB0743
:1048500036D50123424631462846B84701303FF459
:1048600076AEDDE9082331462846B84701303FF4EB
:104870006EAED4E91201002200230AF1FF3AFCF7E0
:1048800093F8C0B9534608F1010231462846B847AB
:1048900001300CD15BE601235A4631462846B84721
:1048A00001303FF454AE08F10108D045F3DB4B462C
:1048B00004F15002E0E64FF0000804F11A0BF4E7AF
:1048C00001234246E1E701234A4631462846B847DC
:1048D00001303FF43CAE08F10108E3680F995B1A20
:1048E0004345F0DCFDE64FF0000804F11909F4E758
:1048F0002DE9F047164698468A680B6907469342A9
:10490000B8BF1346336091F843200C46DDF8209081
:104910000AB1013333602368990642BF336802331A
:104920003360256815F0060506D104F1190AE3681D
:1049300032689B1AAB422BDC94F843302268003B70
:1049400018BF0123920630D44146384604F1430291
:10495000C847013023D02368226903F00603042BE3
:1049600014BF002533684FF0000608BFE56804F166
:104970001A0408BFED1A54F8123C08BF25EAE57581
:104980009342C4BF9B1AED18B5421AD1002008E02B
:104990000123524641463846C847013003D14FF003
:1049A000FF30BDE8F0870135C1E73020E11881F81C
:1049B00043005A1C94F845102244023382F84310F5
:1049C000C2E70123224641463846C8470130E6D0B7
:1049D0000136D9E72DE9FF470F7E9146782F8046B3
:1049E0000C469A460C9E01F1430207D8622F0AD862
:1049F000002F00F0D380582F00F0BA8004F1420657
:104A000084F842703AE0A7F16303152BF6D801A1B0
:104A100051F823F06D4A0008814A0008FD4900085A
:104A2000FD490008FD490008FD490008814A0008C9
:104A3000FD490008FD490008FD490008FD4900083E
:104A4000834B0008AB4A00083D4B0008FD490008B5
:104A5000FD490008A54B0008FD490008AB4A0008C5
:104A6000FD490008FD490008454B000833681A1D40
:104A70001B68326004F1420684F8423001239EE054
:104A800033682068191D3160060601D51D6803E0F2
:104A90004506FBD5B3F90050002D03DA2D236D42F6
:104AA00084F843300A23594811E021683368080626
:104AB00053F8045B02D4490648BFADB26F2F336090
:104AC00014BF0A2308235148002184F84310666864
:104AD000002EA8BF2168A660A4BF21F004012160B8
:104AE0000DB9002E4BD01646B5FBF3F103FB115761
:104AF000C75D06F8017D2F46BB420D46F4D9082B51
:104B00000BD12368DF0708D5236961689942DEBFAE
:104B1000302306F8013C06F1FF36921B22614B461A
:104B200021464046CDF800A003AAFFF7E1FE013080
:104B30004AD14FF0FF3004B0BDE8F087236843F05E
:104B4000200323607827324884F845702368316851
:104B50001F0651F8045B02D45F0648BFADB2316056
:104B6000D90744BF43F0200323601DB11023ABE7F6
:104B70002648E9E7236823F020032360F6E716467A
:104B8000BDE733682568181D616930602E061B6813
:104B900001D5196002E06806FBD51980002316468E
:104BA0002361BCE7336800211A1D32601E68626809
:104BB000304600F01CFD08B1801B60606368236113
:104BC000002384F84330AAE7324649464046236929
:104BD000D0470130ADD023689B0713D4E068039B16
:104BE0009842B8BF1846A6E70123324649464046D8
:104BF000D04701309DD00135E36803995B1AAB4281
:104C0000F2DCEBE7002504F11906F5E7D8A6000869
:104C1000E9A600082DE9F04F87B003938B6817468B
:104C20005A1EB2F5AE7F82BF6FF4AE7503EB050B73
:104C300040F25D130A464FF0000588BF8B600B6899
:104C4000804643F4F06342F81C3B0C4698BF4FF09B
:104C5000000B1646AA46A946CDE9045501920295D5
:104C6000A26852B13B681B784E2B65D8402B3DD8CB
:104C7000A3F12B01C8B20E283BD9B9F1000F03D024
:104C8000236823F4807323600AF1FF3ABAF1010F1D
:104C900000F21881019B9E4200F20981012007B0B9
:104CA000BDE8F08FA3F161020D2AE6D801A151F809
:104CB00022F000BFFB4D00087B4C00087B4C000835
:104CC0007B4C00085B4E0008334E00087B4C00080C
:104CD0007B4C0008094E00087B4C00087B4C000808
:104CE0007B4C00087B4C0008C14D0008A3F1410239
:104CF000DAE70E29C1D801A050F821F0B14D000823
:104D00007B4C0008B14D0008474E00087B4C000862
:104D1000594D0008974D0008974D0008974D000821
:104D2000974D0008974D0008974D0008974D0008D3
:104D3000974D0008974D00086E2B09D8602BB1D80D
:104D4000542B7BD0592B98D1072D96D108252CE0D8
:104D5000742B73D0792BF6E72168C8051BD521F099
:104D60008001216009F10109BBF1000F03D001327C
:104D70000BF1FF3BA260A368013BA36023690133F1
:104D800023617B68013B002B7B6040F387803B689D
:104D900001333B6064E71AEB05017FF46EAF0D460B
:104DA0008A46226822F4C072226006F8013BE2E7DC
:104DB000226810067FF561AF22F080022260F4E7DE
:104DC000BAF1000F0ED1B9F1000F0ED1226802F432
:104DD000E061B1F5E06F08D122F4F0624FF0010A12
:104DE0002260E2E7BAF1020F55D0012D02D0042D66
:104DF0007FF443AF0135EDB2D7E7BAF1010F7FF48D
:104E00003CAF4FF0020AD0E77DB9B9F1000F7FF453
:104E100037AF226802F4E061B1F5E06F40F0038142
:104E200022F4F06201252260BFE7032DE2D0052DB8
:104E3000DEE7022D7FF421AF0325B6E7062D7FF4D0
:104E40001CAF0725B1E7226891057FF516AF22F464
:104E500020722260CDF80890A7E7226802F4A061D2
:104E6000B1F5806F06D050057FF507AFB9F1000F9F
:104E700000F0D980910558BF029922F4F06258BF22
:104E8000A9EB010142F4C0724FF0000958BFCDE90F
:104E90000416226089E74FF0030A86E73946404648
:104EA000D4F88031984700283FF4DAAEE5E6D4F82C
:104EB0007C313A46404616F8011D98472369013B6C
:104EC0002361E7E66B1E062B24D8022D36D8019B02
:104ED0009E427FF6E3AED4F87C313A46404616F85F
:104EE000011D98472369013B2361F0E7D4F87C3129
:104EF0003A4640461BF8011D98472369013B236150
:104F00000AF1FF3A5FFA8AFABAF1020FEED1033DD5
:104F1000EDB2761B2368DA0530D55B0511D5019B10
:104F20009E427FF6BBAED4F87C313A46404616F836
:104F3000011D98472369013B2361F0E7AA46B34668
:104F4000DEE716F8011C2369652903F1FF3306F13A
:104F5000FF3523610CD045290AD0D4F87C313A467C
:104F600040469847236916F8021C013BB51E236191
:104F70003A464046D4F87C3198472E46226812F0D3
:104F8000100201D000208AE63270236803F4C06367
:104F9000B3F5806F1CD1029B4B45A3EB090223D1D3
:104FA00000224046019902F033FD039B25681B68EF
:104FB00015F0020F06460F4603F104021FD00399B5
:104FC0000A601B68C3E90067E3680133E360D9E75F
:104FD000049B002BE4D005990A234046013102F0DE
:104FE00097FD049B059EC21A04F26F139E4228BFD0
:104FF00004F5B77630460D4900F082F9D0E76D0729
:10500000DDD4039D2A601D6802460B46FBF7FEFCBB
:1050100020B1074800F008FB2860D5E73046394644
:10502000FBF752FDF8E74FF000092DE6FAA600085D
:1050300095AA0008002310B50446C0E90033C0E972
:105040000433836081814366C281836119460822EB
:105050005C3000F04DFA0D4B246263620C4BA3628E
:105060000C4BE3620C4B23630C4B9C4206D003F1C8
:105070006802944202D0D0339C4205D104F158001A
:10508000BDE8104000F0B0BA10BD00BF41530008A9
:10509000635300089B530008BF5300087C43002063
:1050A000024A0349034800F069B800BF30000020FD
:1050B000458100084000002041680C4B10B5994222
:1050C000044601D003F03EF8A168094B994202D092
:1050D000204603F037F8E168064B994204D0204699
:1050E000BDE8104003F02EB810BD00BF7C43002087
:1050F000E44300204C44002010B50B4B0B4C0C4AF1
:1051000020461A6004210022FFF794FF04F1680092
:1051100001220921FFF78EFF04F1D0000222BDE831
:1051200010401221FFF786BFB44400207C430020CA
:10513000A1500008014800F058BA00BFBD4400204B
:10514000014800F053BA00BFBD44002010B504462A
:10515000FFF7F0FF236A1BB1BDE81040FFF7F0BF77
:10516000044B2362044B1B68002BF5D1FFF7C4FFEF
:10517000F2E700BFB9500008B44400202DE9F8431D
:105180000746884614460026D4E90195B9F101097D
:1051900005D52468002CF7D13046BDE8F883AB89EB
:1051A000012B07D9B5F90E30013303D02946384613
:1051B000C04706436835E9E70FB407B5064904ABB5
:1051C000086853F8042B8168019302F023FE03B0B2
:1051D0005DF804EB04B070473C000020036A70B532
:1051E00005460E4684680BB9FFF7B0FF636EDB0718
:1051F00005D4A389980502D4A06D00F0F6F9A3891F
:10520000190702D52369002B35D12146284600F025
:1052100019F980B34FF0FF35636EDA0705D4A3891F
:105220009B0502D4A06D00F0E1F9284670BD002B6B
:1052300004DAA2699A4217DC0A2915D023685A1C9D
:1052400022601970A36816F8011F013BA3600029B2
:10525000EDD1002B11DA22460A21284600F0B3F8DE
:105260000130D7D00A25D7E72246284600F0ABF810
:105270000130E7D1CEE7013EE4E723685A1C226003
:105280000A221A70EEE70000024B01461868FFF789
:10529000A5BF00BF3C0000200CB430B5174B0C1E5E
:1052A0001D689DB008DA8B234FF0FF302B601DB0D6
:1052B000BDE8304002B070474FF40273ADF81430CF
:1052C0000CBF234604F1FF33049307934FF6FF739B
:1052D00002900690ADF81630284621AB209A02A91C
:1052E000019302F073FC431CBCBF8B232B60002C8A
:1052F000DDD00022029B1A70D9E700BF3C000020DD
:105300000EB46FF0004100B59CB01DAB029006904A
:10531000079104910848094953F8042B0591006846
:1053200002A9019302F052FC0022029B1A701CB0E9
:105330005DF804EB03B070473C0000200802FFFF5B
:1053400010B50C46B1F90E1000F000F90028ABBF03
:10535000636DA3891B1823F48053ACBF6365A381DD
:1053600010BD2DE9F0411F468B890546DB050C4633
:10537000164605D502230022B1F90E1000F0D4F82C
:10538000A389324623F48053A38128463B46B4F9CF
:105390000E10BDE8F04100F0EBB810B50C46B1F9C5
:1053A0000E1000F0C1F8431CA38915BF606523F4FB
:1053B000805343F48053A38118BFA38110BDB1F97A
:1053C0000E1000F0A1B8F8B50E461446054618B107
:1053D000036A0BB9FFF7BAFEA369A360A3891A0792
:1053E00001D5236943B92146284600F02BF818B1AE
:1053F0004FF0FF373846F8BD23682269F6B2981A95
:1054000063693746834205DC2146284602F09AFE4E
:105410000028EDD1A368013BA36023685A1C2260D9
:105420001E706269431C9A4204D0A389DB07E1D550
:105430000A2EDFD12146284602F084FE0028D9D06A
:10544000D6E7000038B5294B054618680C4618B158
:10545000036A0BB9FFF77AFEB4F90C30190722D4AE
:10546000DA0607D409222A6043F040034FF0FF30E8
:10547000A38133E0580712D5616B41B104F14403B5
:10548000994202D0284600F023FF00236363A389DA
:1054900023F02403A3810023636023692360A3898D
:1054A00043F00803A38123694BB9A38903F4207354
:1054B000B3F5007F03D02146284602F090FEB4F9F0
:1054C0000C3013F001020AD00022A260626952423D
:1054D000A261226942B913F08000C5D138BD990795
:1054E00058BF6269A260F4E70020F7E73C000020A3
:1054F00003460244934200D1704703F8011BF9E7C9
:10550000004870477C01002038B50023054D044653
:1055100008462B60FCF7C1F8431C02D12B6803B18D
:10552000236038BDB844002038B50446084611460B
:105530000022054D2A601A46FCF7D3F8431C02D11D
:105540002B6803B1236038BDB844002038B5044649
:10555000084611460022054D2A601A46FCF780F8DD
:10556000431C02D12B6803B1236038BDB84400202E
:1055700038B50446084611460022054D2A601A46F1
:10558000FDF73AFD431C02D12B6803B1236038BDFF
:10559000B8440020014B1868704700BF3C00002051
:1055A00070B500260C4D0D4C641BA410A64209D109
:1055B00004F024F900260A4D0A4C641BA410A642EC
:1055C00005D170BD55F8043B98470136EEE755F814
:1055D000043B98470136F2E718AB000818AB000807
:1055E00018AB00081CAB00087047704770470346B3
:1055F00010B5C9B202449342184601D1002003E01D
:10560000047801338C42F6D110BD0A44914200F176
:10561000FF3300D1704710B511F8014B914203F8E8
:10562000014FF9D110BD0000004870470000C07F55
:105630002DE9F74F03690C690746A3427EDB013C65
:10564000A30000F1140501F11408009305EB840395
:10565000019358F8243055F8242001339A42B2FBC4
:10566000F3F608EB84092ED34FF0000AC446AE4689
:10567000D3465CF8043B98B206FB00A01B0C020C5E
:1056800006FB0323DEF8002080B292B2121A5A44BD
:10569000DEF800004FEA134A9BB2C3EB224303EB50
:1056A000104392B242EA0342E1454FEA234B4EF8DF
:1056B000042BDED2009BEB582BB9019B043B9D428F
:1056C0001A462FD33C61384601F0C2F9002825DB89
:1056D0002946002058F8042BD1F800C01FFA82FE9A
:1056E0001FFA8CF3A3EB0E030344120CC2EB23420C
:1056F00002EB1C429BB243EA0243C1454FEA2240FF
:1057000041F8043BE6D255F8242005EB840322B986
:10571000043B9D421A460BD33C610136304603B030
:10572000BDE8F08F1268043B002ACBD1013CC6E7EC
:105730001268043B002AEFD1013CEAE70020EEE7C3
:105740002DE9F04F14461D46C76997B08346CDE951
:105750000245239E7FB9102000F002FE0246CBF8DE
:105760001C0020B9EF21A84BA84802F0D9FDC0E9E0
:1057700001770760C760DBF81C30196859B15A68B7
:10578000012393404A608B60584600F0DFFE002200
:10579000DBF81C301A602B1EAFBF0023012223F060
:1057A00000430393A8BF3360DDF80C80984BB8BF6B
:1057B000326033EA080312D142F20F73229A136067
:1057C000C8F31303234300F05085249BDFF844A261
:1057D000002B00F052850AF1030300F04CBDDDE917
:1057E0000223CDE90C23DDE90C0100220023FBF7A5
:1057F000DBF8074658B10123229A1360249B13B1AA
:10580000854B249A1360DFF814A200F036BD14AB68
:10581000019315AB00935846DDE90C2301F030FAF3
:10582000C8F30A568146002E77D0DDE90C010D9BA6
:10583000A6F2FF36C3F3130343F07F5343F4401340
:10584000129719460022764BFAF78EFC68A3D3E92B
:105850000023FAF741FE68A3D3E90023FAF786FC98
:10586000044630460D46FAF7CDFD65A3D3E9002383
:10587000FAF732FE02460B4620462946FAF776FC36
:1058800004460D46FBF7D8F80022074600232046C1
:105890002946FBF793F840B13846FAF7B3FD2246A4
:1058A0002B46FBF781F800B9013F162F53D8DDE9ED
:1058B0000C015C4B03EBC703D3E90023FBF77EF835
:1058C00000284AD00023013F0F93149B9B1B5A1EB4
:1058D00046BFC3F1010800234FF00008099248BFFA
:1058E0000993002F3BDB099B0E973B440993002350
:1058F0000A93209B092B66D8052BC4BF043B209339
:10590000209BC8BF0024A3F10203D8BF0124032BAE
:1059100064D8DFE803F02B383656DDE914631E4403
:1059200006F23243202BC1BFC3F1400308FA03F84B
:1059300006F2124324FA03F3D6BFC3F1200348EA68
:10594000030004FA03F0FAF74DFD0122A1F1F87308
:10595000013E129275E70123B6E70F90B5E77B424F
:105960000A930023A8EB07080E93C2E700230B93CA
:10597000219B002B35DC01231A46CDE90733219208
:105980000BE00123F3E700230B93219BFB18089303
:105990000133012B0793B8BF012300210422DBF858
:1059A0001C0002F114059D421FD94160584600F0C9
:1059B0008DFD8246002839D1024640F2AF111A4BC4
:1059C000D2E60123E0E7012400230B9420934FF05B
:1059D000FF330022CDE907331223D0E701230B93D5
:1059E000F5E7219BCDE90733D7E701315200D8E72E
:1059F00061436F63A787D23FB3C8608B288AC63FD5
:105A0000FB799F501344D33F0CA7000823A700083D
:105A10000000F07F08A70008D7A60008D6A6000857
:105A20000000F83F20A800087BA70008DBF81C3026
:105A30001860079B0E2B00F2A480002C00F0A180C0
:105A4000002F33DD864B07F00F0203EBC203F8058E
:105A5000D3E90034CDE904344FEA271416D5DDE943
:105A60000C01804B0326D3E90823FAF75FFECDE94A
:105A7000020104F00F047B4D54B9DDE90423DDE994
:105A80000201FAF753FECDE9020128E00226F2E70F
:105A9000E10708D5DDE90401D5E90023FAF71CFD8B
:105AA000CDE90401013664100835E5E700F0D28045
:105AB000DDE90C017C426A4B04F00F0203EBC203E8
:105AC000D3E90023FAF708FD02260023CDE90201FD
:105AD000644D2411002C40F0B280002BD3D1DDE9BD
